:100000000C94DD070C9415080C9415080C9496328A
:100010000C9415080C9415080C9415080C941508EC
:100020000C9415080C9415080C949D1B0C94591BEA
:100030000C94692A0C9415080C9415080C94150856
:100040000C9415080C9415080C9415080C941508BC
:100050000C9415080C94761C0C9415080C94150837
:100060000C9415080C9415080C9415080C9415089C
:100070000C9415080C9415080C9415080C9415088C
:100080000C9415080C9415080C9415080C9415087C
:100090000C9415080C9415080C9415080C9415086C
:1000A0000C9415080C9415080C9415082020202099
:1000B0002000165C1E001F002000210022002B00E3
:1000C00014001A0008001500170039620400160019
:1000D000070009000A00E0001D001B0006001900CF
:1000E000050035002F644C0001512C00E3002D0069
:1000F000270026002500240023002E0013001200F4
:100100000C0018001C00340033000F000E000D001E
:100110000B003172380037003600100011004663C2
:1001200030742A0002512800650000001E021F02E0
:100130002002210222020100220223022D022E02AD
:10014000310201002F02300226022702360201008E
:1001500001002D02240225023702010001000100E6
:1001600001000100000046004900560055005400FF
:100170005300000052005700610060005F004F0014
:10018000510085005E005D005C004D004A0050009B
:100190005B005A0059006700630062000100010023
:1001A000000044003A003B003C003D003E000100DE
:1001B0002F003000000000000000E10026022702AE
:1001C000000000000000010001003800870064000A
:1001D0000000010001004C0001002F022602450032
:1001E00043004200410040003F00000000000000CA
:1001F0004E0052004B000000000000004F00510074
:100200005000E100000000000000000000000100BC
:1002100001002A00010030022702005C00000000FB
:10022000000000000000C35CC65CC85CCA5C000043
:100230000000C45CC75CC95CCB5C0000000000002F
:1002400000000000000000000000010001000100AB
:100250000100010000001450000000000000000038
:100260000000000000000000AB00AE00AC00000089
:1002700000000000AA00A800A90000000000000083
:100280000000000000000100010001000100010069
:100290000000220029001E001F002000210017007E
:1002A0002B0014001A00080015000A00E1000400E9
:1002B0001600070009000500E0001D001B000600F5
:1002C00019003A003B00E100E0002C000000105053
:1002D000270026002500240023003300130012000D
:1002E0000C0018001C00340052000F000E000D001E
:1002F0000B004F0051003700360010001100500075
:100300003C00E500E4002800000000DA0281FFD98B
:10031000F1DB20A4A62EAF00A0C000A1C800AED57E
:1003200080A81FD300408D14200020949596202093
:10033000B4B5B62020D4D5D6200020979899202097
:10034000B7B8B92020D7D8D92000209A9B9C20206C
:10035000BABBBC2020DADBDC2000209D9E9F202041
:10036000BDBEBF2020DDDEDF2000A7A800AFB000AB
:10037000C600CA00C800A5A600ADAE008788008FE1
:100380009000C500C900C700CB008586008D8E0097
:10039000ABAC00CFD000C600CA00C800A9AA00B10B
:1003A000B2008B8C00CDCE00C500C900C700CB00C9
:1003B000898A0091920000C0202020202020202047
:1003C000202020202020202020202020202020202D
:1003D00020202020C00000FF0000000000000000DE
:1003E0000080C0E0F0F8F8F0E0C0800000000000FD
:1003F00000000000FF0000FF0000000000000000FF
:10040000000000001F3F3F1F000000000000000030
:1004100000000000FF0000030404040404040404BA
:10042000040404040404040404040404040404048C
:1004300004040404030000000080201000080808E1
:100440000808080808080808080808080808080034
:10045000102080000000000000FF000000000000ED
:100460000000003030F8F80000000000000000003C
:100470000000FF000000000000FF0000000000007E
:1004800000000000003F3F000000000000000000EE
:100490000000FF0000000000000104080010101020
:1004A000101010101010101010101010101010005C
:1004B00008040100000000C020202020202020206F
:1004C000202020202020202020202020202020202C
:1004D00020202020C00000FF0000000000000000DD
:1004E0000080C0E0F0F8F8F0E0C0800000000000FC
:1004F00000000000FF0000FF0000000000000000FE
:10050000000000001F3F3F1F00000000000000002F
:1005100000000000FF0000030404040404040404B9
:10052000040404040404040404040404040404048B
:1005300004040404030000000000C0E0F0F0F0F048
:10054000F0F0F0F0F0F0F0F0F0F0F0F0F0F0F0F0AB
:10055000E0C00000000000000000FFFFFFFFFFFF01
:10056000FFFFFFCFCF0707FFFFFFFFFFFFFFFFFFEB
:10057000FFFF0000000000000000FFFFFFFFFFFF83
:10058000FFFFFFFFFFC0C0FFFFFFFFFFFFFFFFFFF9
:10059000FFFF000000000000000003070F0F0F0F17
:1005A0000F0F0F0F0F0F0F0F0F0F0F0F0F0F0F0F5B
:1005B0000703000000000080C0E0E0E0E0E0E0E0D1
:1005C000E0E0E0E0E0E0E0E0E0E0E0E0E0E0E0E02B
:1005D000E0E0E0C0800000FFFFFFFFFFFFFFFFFF44
:1005E000FF7F3F1F0F07070F1F3F7FFFFFFFFFFF2B
:1005F000FFFFFFFFFF0000FFFFFFFFFFFFFFFFFF09
:10060000FFFFFFFFFFE0E0FFFFFFFFFFFFFFFFFF38
:10061000FFFFFFFFFF0000010307070707070707AA
:10062000070707070707070707070707070707075A
:1006300007070703010000000080201000080808D9
:100640000808080808080808080808080808080032
:10065000102080000000000000FF000000000000EB
:100660000000003030F8F80000000000000000003A
:100670000000FF000000000000FF0000000000007C
:1006800000000000003F3F000000000000000000EC
:100690000000FF000000000000010408001010101E
:1006A000101010101010101010101010101010005A
:1006B0000804010000000080C0E0E0E0E0E0E0E0CD
:1006C000E0E0E0E0E0E0E0E0E0E0E0E0E0E0E0E02A
:1006D000E0E0E0C0800000FFFFFFFFFFFFFFFFFF43
:1006E000FF7F3F1F0F07070F1F3F7FFFFFFFFFFF2A
:1006F000FFFFFFFFFF0000FFFFFFFFFFFFFFFFFF08
:10070000FFFFFFFFFFE0E0FFFFFFFFFFFFFFFFFF37
:10071000FFFFFFFFFF0000010307070707070707A9
:100720000707070707070707070707070707070759
:1007300007070703010000000000C0E0F0F0F0F040
:10074000F0F0F0F0F0F0F0F0F0F0F0F0F0F0F0F0A9
:10075000E0C00000000000000000FFFFFFFFFFFFFF
:10076000FFFFFFCFCF0707FFFFFFFFFFFFFFFFFFE9
:10077000FFFF0000000000000000FFFFFFFFFFFF81
:10078000FFFFFFFFFFC0C0FFFFFFFFFFFFFFFFFFF7
:10079000FFFF000000000000000003070F0F0F0F15
:1007A0000F0F0F0F0F0F0F0F0F0F0F0F0F0F0F0F59
:1007B000070300000000A0A1A2A3A4C0C1C2C3C43B
:1007C00000FFFFFFFFFFFFFFFFFFFFFFFFFFFFFF38
:1007D0009F0DA5C7FFFF0F0F1BFBFFFFFFFFFFFFD5
:1007E000FFFFFFFFFF7F1F0F070303010000030749
:1007F0000F0F1F1E1E0A0F0F0F07013F7FFFFFFF86
:10080000FFFF3F0F0100E0F8FCFEFEFFFFFFFFFFD0
:10081000FFFFFFFEFEFCF8F00000000000010FFFEC
:10082000FFF70000001F7FFFFFFFFFFFFFFFFFFF3D
:10083000FFFFFFFFFFFF7FBF0F0000000000000170
:10084000FFFFFFFEFEFEFEFEE4DCBD39318101014B
:1008500080012039383830C0F8F0C0C0C0C0C0FCBA
:10086000FF0707070707070707070705050404042D
:100870000500020101040707070707070707070725
:100880000747414D4552204D4F44450000010101AD
:10089000010101010101020202020202020202033D
:1008A000030303030303030404040404040405050D
:1008B00005050506060606060707070707080808D0
:1008C00008090909090A0A0A0B0B0B0C0C0C0D0D7F
:1008D0000D0E0E0E0F0F0F10101111111212131317
:1008E0001414151516161717181819191A1A1B1B90
:1008F0001C1D1D1E1E1F20202122222324242526EC
:1009000026272829292A2B2C2D2D2E2F3031323223
:10091000333435363738393A3B3C3D3E3F4041422F
:10092000434445464748494A4C4D4E4F5051535415
:10093000555658595A5B5D5E5F61626465666869C9
:100940006B6C6D6F7072737577787A7B7D7E808249
:10095000838587888A8C8E8F91939596989A9C9E92
:10096000A0A2A3A5A7A9ABADAFB1B3B5B7BABCBEA2
:10097000C0C2C4C6C9CBCDCFD1D4D6D8DBDDDFE26F
:10098000E4E7E9EBEEF0F3F5F8FAFDFF00AF00AEB7
:1009900005010980A101850319012AB70015012667
:1009A000B700950175108100C0050C0901A10185F2
:1009B0000419012AA002150126A0029501751081D3
:1009C00000C005010906A101050719E029E7150086
:1009D00025019508750181029501750881010507BA
:1009E000190029FF150026FF0095067508810005EE
:1009F0000819012905950575019102950175039165
:100A000001C009023B00020100A0FA090400000134
:100A100003010100092111010001224000070581A5
:100A2000030800010904010001030000000921116D
:100A3000010001223200070582032000011201009B
:100A400002000000088379694B0100010200010ED9
:100A5000034B0069006D0069006B006F000000141B
:100A6000034B006500790063006100700073007340
:100A70000073000000040309040000000000003EB1
:100A80005B4F5B3E003E6B4F6B3E001C3E7C3E1C52
:100A900000183C7E3C18001C577D571C001C5E7FD4
:100AA0005E1C0000183C180000FFE7C3E7FF0000D1
:100AB0001824180000FFE7DBE7FF0030483A060E75
:100AC00000262979292600407F05050700407F057B
:100AD000253F005A3CE73C5A007F3E1C1C0800089A
:100AE0001C1C3E7F0014227F2214005F5F005F5FAA
:100AF0000006097F017F00006689956A00606060DA
:100B000060600094A2FFA2940008047E0408001014
:100B1000207E20100008082A1C0800081C2A08084B
:100B2000001E10101010000C1E0C1E0C0030383E61
:100B3000383000060E3E0E060000000000000000E7
:100B4000005F000000000700070000147F147F14FE
:100B500000242A7F2A1200231308646200364956B3
:100B6000205000000807030000001C224100000084
:100B700041221C00002A1C7F1C2A0008083E08088D
:100B800000008070300000080808080800000060BD
:100B90006000002010080402003E5149453E00005C
:100BA000427F4000007249494946002141494D3386
:100BB000001814127F10002745454539003C4A496A
:100BC000493100412111090700364949493600469B
:100BD0004949291E000000140000000040340000B4
:100BE00000000814224100141414141400004122BF
:100BF0001408000201590906003E415D594E007C6F
:100C00001211127C007F49494936003E4141412280
:100C1000007F4141413E007F49494941007F090928
:100C20000901003E41415173007F0808087F000020
:100C3000417F4100002040413F01007F08142241D4
:100C4000007F40404040007F021C027F007F04087C
:100C5000107F003E4141413E007F09090906003EE8
:100C60004151215E007F0919294600264949493230
:100C70000003017F0103003F4040403F001F204030
:100C8000201F003F4038403F0063140814630003F6
:100C900004780403006159494D4300007F414141FC
:100CA00000020408102000004141417F00040201BD
:100CB00002040040404040400000130708000020AC
:100CC00054547840007F2844443800384444442831
:100CD00000384444287F0038545454180000087EDB
:100CE0000902001824241C78007F080404780000FE
:100CF000447D4000002040403D00007F102844001B
:100D00000000417F4000007C04780478007C0804E7
:100D10000478003844444438007C1824241800180F
:100D20002424187C007C08040408004854545424EB
:100D30000004043F4424003C4040207C001C204030
:100D4000201C003C4030403C004428102844004C0B
:100D50009090907C004464544C440000083641005C
:100D60000000007700000000413608000002010288
:100D70000402003C2623263C001E2F373B3D1E006C
:100D80001E212D2D2D1E001E2F373B3D1E001E2126
:100D90003B37211E00000000F8042252E24242428A
:100DA000E2522222224282020222220204F800009F
:100DB000F80402028242224282020202824222128B
:100DC0002242820204F80000F8FCDEAE1EBEBEBE67
:100DD0001EAEDEDEDEBE7EFEFEDEDEFEFCF80000C7
:100DE000F8FCFEFE7EBEDEBE7EFEFE0000000000C1
:100DF0000080804040202010100808101020204063
:100E00004080808080C0C0E0E0F0F0F8F8F0F0E0D2
:100E1000E0C0C08080808040402020101008081072
:100E200010202040408080808040C060A050B0589A
:100E3000A850B060A040C080801F1F0E1B11001F73
:100E40001F001F1F060C061F1F001F1F001F1F0E65
:100E50001B11001F1F111F001F20444A474242421E
:100E6000474A44404040404142444440201F000023
:100E70001F2040414040404040414041414F484890
:100E8000484F4141201F00001F3F7B75787D7D7DCD
:100E900078757B7F7F7F7F7E7D7B7B7F3F1F000020
:100EA0001F3F7F7E7F7F7F7F7F7E7F00000000006F
:100EB0000088885D5D3E3E7C7CF8F87C7C3E3E5D33
:100EC0005D888888885555232347478F8F47472358
:100ED00023555588888888D5D5E2E2C4C48888C45B
:100EE000C4E2E2D5D5888888885DD56BB66DD6AD6D
:100EF000DA6DD66BB65DD588887F6171797F007FAA
:100F000019192D6F0043417F4161007F1F19197F1F
:100F1000004161717F010004F80000F804201F0007
:100F2000001F20FCF80000F8043F1F00001F2004F1
:100F3000F80000F8FC201F00001F3FFCF80000F83C
:100F4000FC3F1F00001F3FFE7EBEDEEEDEBE7EFECB
:100F5000FCF8007E7E70777777707E7E3F1F000002
:100F60000000000000000000000000000000000081
:100F70000000000101020204040808040402020146
:100F80000100000000010102020404080804040238
:100F9000020101000000000101030307070F0F0712
:100FA0000703030101000000000101030205060D13
:100FB0000A05060302010100000011241FBECFEF45
:100FC000DAE0DEBFCDBF04B603FE18C080915F0734
:100FD00090916007A0916107B09162078730904BB4
:100FE000A740B04B59F410925F071092600710921F
:100FF000610710926207E0E0F8E3099527E0A2EBB1
:10100000B2E001C01D92AF35B207E1F712E0A0E0F7
:10101000B1E0E6E7FAE602C005900D92A23BB10707
:10102000D9F70E94902A0C941C350C9400009091E2
:101030004E05937071F080934F05609350054135D4
:1010400008F040E54093510580914D058160809303
:101050004D05089590914E05937061F081110BC07C
:10106000946090934E051092680180914D058160C7
:1010700080934D050895873010F09861F2CF880F66
:10108000880F982BEECFE8EDF0E080818E7F808393
:101090001092E2001092DA001092E100A0EEB0E0AF
:1010A0008C9181608C9380818F77808319BCA7EDB0
:1010B000B0E08C918E7F8C9380818F7E80831092A4
:1010C0000A0508952091E4003091E50095E6A90114
:1010D0002091EC00822F817020FF06C08091E800F3
:1010E00080FF06C080E008952091E80022FD1AC02C
:1010F00080911705882389F0853089F08091EB0075
:1011000085FD0FC02091E4003091E50042175307A0
:10111000F9F29150E1F684E0089582E0089583E0C9
:10112000089581E00895EF92FF920F931F93CF935C
:101130007C018B010E946208C82F811117C0809129
:10114000E80085FD0BC08091E8008E778093E80071
:101150000E946208882399F3C82F08C0F701819183
:101160007F018093F1000150110949F78C2FCF9135
:101170001F910F91FF90EF9008958091190587FFBF
:1011800013C08091E80082FF06C08091E8008B7751
:101190008093E80004C0809117058111F2CF089573
:1011A000809117058823D9F38091E80080FFF8CF5C
:1011B0008091E8008E77ECCF982F9093E900242F50
:1011C000762F50E0891731F07091EC002091ED00FE
:1011D0005091F00021FD07C09F5F973071F7809319
:1011E000E90081E008953091EB003E7F3093EB0001
:1011F0003091ED003D7F3093ED003091EB00316098
:101200003093EB007093EC002093ED005093F000CE
:101210002091EE0027FDE0CF80E00895CF92DF928D
:10122000EF92FF920F931F93CF93DF93C8EDD0E01F
:1012300088818F7E8883E7EDF0E080818160808304
:1012400084E082BF81E080930A0588818E7F888355
:1012500002EE10E0F80110821092DA0081EEC82E42
:10126000D12CF601108288818F77888388818068ED
:10127000888388818F7D888319BC1092170510920E
:101280001805109216051092150590EEE92EF12C16
:10129000F70180818B7F808388818160888342E031
:1012A00060E080E00E94DC08F60180818E7F808310
:1012B000F801808181608083808188608083F7016C
:1012C00080818E7F8083888180618883DF91CF9148
:1012D0001F910F91FF90EF90DF90CF900895FC0148
:1012E00080911F059091200586179707A0F0611542
:1012F000710529F49091E8009E779093E80090E0C2
:101300006115710551F4911108C08091E80082FFC8
:1013100034C080E00895BC01F2CF80911705882386
:10132000C1F18530C1F18091E80083FD30C080912A
:10133000E80082FDEACF8091E80080FFE1CF809154
:10134000F3002091F200382F6115710519F0283053
:10135000310558F091E02830310509F090E02091F6
:10136000E8002E772093E800CBCF81918093F100A5
:10137000615071092F5F3F4FE7CF80911705882398
:1013800041F0853041F08091E80083FFBECF81E0DD
:10139000089582E0089583E0089508950895809166
:1013A0000C0508952FB7F89460910305709104051A
:1013B00080910505909106052FBF089520910005A5
:1013C000309101052817390771F09093010580933A
:1013D0000005E091FE04F091FF04309721F00084B5
:1013E000F185E02D099408952091FC043091FD04CD
:1013F0002817390771F09093FD048093FC04E09165
:10140000FE04F091FF04309721F00680F781E02D73
:1014100009940895CF93DF9320915D0730915E0783
:1014200027553540A901460F571F4130524020F043
:1014300060E072E0621B730B4091550550915605B8
:10144000FC01C901620F731FC1E0D0E08617970746
:1014500038F05093560540935505DF91CF9108958C
:101460002491DC01A95ABA4F3C91321781F02C9398
:101470009C01A5E036952795AA95E1F7DE0102C00B
:10148000AA0FBB1F2A95E2F79D014A2B532B019609
:101490003196DCCFFC01680F791F8FEF91E321912A
:1014A000822728E030E087FF09C0880F8927215074
:1014B0003109C9F7E617F70791F70895880FF7CFB5
:1014C000FA01811101C0FB010994EEE4F5E02481E9
:1014D0003AE0231B08F420E0248380914D058160CD
:1014E00080934D050895EEE4F5E024813AE0230F62
:1014F00008F42FEF248380914D05816080934D0582
:101500000895EEE4F5E0438128E0421B08F440E052
:101510008181628190E00C941708EEE4F5E043814C
:1015200028E0420F08F44FEF8181628190E00C9433
:101530001708EEE4F5E0628128E0621B08F460E041
:101540008181438190E00C941708EEE4F5E062811C
:1015500028E0620F08F46FEF8181438190E00C94E2
:101560001708EEE4F5E08181438162818850990B90
:101570000C941708EEE4F5E0818190E043816281EC
:1015800008960C94170880914E0586958695815093
:1015900009F486E00C942A0880914E05869586957C
:1015A0008F5F873008F081E00C942A0880936301F4
:1015B00080914E058370809362010E94931483E0B2
:1015C000809368010895EF92FF920F939701201B7B
:1015D00031092F3F310519F010F02FEF30E0322F95
:1015E0003095482F430F08F44FEF842F620F0F916F
:1015F000FF90EF900895EF92FF920F93970195E07F
:10160000099F200D311D11242F3F310519F010F0D5
:101610002FEF30E02095382F320F08F43FEF832F63
:101620000F91FF90EF9008950C949F16FF920F93E7
:101630001F93CF93DF93182F062FF42ED0E0C0E036
:101640002F2D402F612FCE010E94140B2196CC33F9
:10165000D105B1F7DF91CF911F910F91FF900895C0
:10166000AF92BF92CF92DF92FF920F931F93CF93CF
:10167000DF93362F472FE82FF0E0E457F74F711133
:101680000FC0E4918E2F2E2F6E2F722FDF91CF91EE
:101690001F910F91FF90DF90CF90BF90AF90089572
:1016A000C72FD0E02491F22E022F10E056E0659F64
:1016B000C0011124EFEFF0E0BF010E94B233832F8D
:1016C00090E0880F991F35E5369FD001379FB00D08
:1016D00011248A1B9B0B982F990F980F6F01CC1A1E
:1016E000DD0AC09ED001C19EB00DD09EB00D112468
:1016F0008B2F499FA0011124452F55276F01C41A34
:10170000D50AC09EA001C19E500DD09E500D11243F
:101710005F01A91AB108AC9E6001AD9ED00CBC9EC1
:10172000D00C1124CD2CDD24EC19FD09E09FE00143
:10173000E19FD00DF09FD00D1124ED2F6230710587
:10174000A1F050F46115710509F49ECF6130710567
:1017500081F0EB2F852F98CF6430710569F080F010
:101760006630710509F490CFF4CFE22F2B2F8D2F27
:101770008BCFE22F252F88CFEB2F822F2D2F84CFD9
:101780002B2F8F2DE52F80CF80E00895789408953A
:10179000F894E82FE295EF70F0E031A1282F2F7038
:1017A00081E090E001C0880F2A95EAF7982F909584
:1017B000932391A392A1892B82A30C94C60B9091A1
:1017C000880392FF06C0282F28712830F9F4877FFC
:1017D000846093FF06C0282F28712831F1F4877E9A
:1017E00084612091890320FF06C0382F387138307A
:1017F000D9F4877F816021FF06C0282F2871283106
:10180000D1F4877E816194FD877E0895282F24710D
:101810002430F9F68B7F8860DCCF282F24712431A7
:1018200001F78B7E8861DDCF382F3171313019F7A8
:101830008E7F8860E0CF282F2171213121F78E7EA5
:101840008861E1CFCF93DF93EC0182389105A9F154
:10185000D8F58133910509F496C048F58932910590
:1018600009F48AC08A9709F495C0C11522E5D20708
:1018700008F0B6C0C11531E5D30708F026C1C83E4F
:10188000D10508F09CC0C03ED10560F5C83AD1052D
:1018900008F087C0C53AD10508F0EFC0C130D105C6
:1018A00009F12097F9F0C430D105E0F440C0853348
:1018B000910509F45AC0C997C1F6809188038370D5
:1018C00089F0C0EED0E00EC0833E910599F170F42E
:1018D000803E910501F1823E910539F680918803A1
:1018E00082FD21C0CE01DF91CF910895863E910502
:1018F00061F1873E910571F1843E910509F0B5CF04
:101900008091890381FFEECF80918803C7EED0E0FC
:1019100084FD0DC0E7CF8091880380FD07C19091C1
:10192000890390FFDFCFC3EED0E084FFDBCFD0E0B0
:10193000C0E0D8CF8091880382FDFBC090918903DD
:1019400090FDBFCF84FFCECFF2CF8091880383FD7F
:10195000DDCFC8CF8091880383FDEEC090918903CD
:1019600091FFF0CFC4EED0E0BDCF8091880385FF1A
:10197000B9CFC9E2D0E0B6CF8091880385FFB2CF5E
:10198000C5E3D0E0AFCF8091880386FFABCFCAE23A
:10199000D0E0A8CF8091880386FFA4CFC1E3D0E038
:1019A000A1CFCF3BD10518F6C85AD0E0CC0FDD1F30
:1019B000C159DE4F0990D881C02DD46493CFC11591
:1019C00040E5D40708F064C0C11580E4D80708F0EA
:1019D0005CC0CE019A9581159F4108F483CFA7CFB3
:1019E000C11536E5D30718F5C11545E5D40708F04C
:1019F00084C0C11584E5D80708F07AC09C2F96955D
:101A000096959E0123703327C115D34508F462C013
:101A1000C1E0D0E002C0CC0FDD1F2A95E2F730E232
:101A2000939FC0011124C82BD92BDA685BCFC11555
:101A30008AE5D80778F4C11599E5D90708F068C098
:101A4000C11528E5D20708F472CFDC2FCC27C06F70
:101A5000D06A48CFCE0190568115904208F067CFEA
:101A60008D2F8F710E94DF0B90E0982F8827882799
:101A70009F719C012C2BE90149C0C55AD0E0C45983
:101A8000DE4FC881D0E0D0642DCFDF70D06A2ACF7E
:101A9000CE01E4E096958795EA95E1F783702C2FC7
:101AA00026952695237040E2249F90011124382B1F
:101AB0008C2F8370C1E0D0E002C0CC0FDD1F8A956F
:101AC000E2F7C22BD32BDC680DCFDC2FCC27C16F04
:101AD000D06A08CFC1E0D0E002C0CC0FDD1F2A954C
:101AE000E2F720E2929FC0011124C82BD92BEBCF43
:101AF000DC2FCC27C46FD06AF5CE8C2F0E94DF0B71
:101B0000C82FD0E0DC2FCC27CC27DF71D062EACE03
:101B10008C2F8F700E94DF0B34E0D695C7953A95D5
:101B2000E1F7CF709C2FEC01D069DCCEC9E3D0E0A7
:101B3000D9CEC2EED0E0D6CEC6EED0E0D3CE0C9455
:101B4000D2098091A60381111092A6030895809571
:101B50009091A50398239093A5030895E6EBF2E0F6
:101B60009191891303C0DF0111971C9292E0EC3B25
:101B7000F907B1F70895A6EBB2E0EFEF90E02D91F1
:101B8000821751F0EF3F19F4211101C0E92F9F5F37
:101B90009630A9F7EF3F09F408950E2E000CFF0BC5
:101BA000EC54FD4F8283089580911C039091EB02C9
:101BB000981301C008958F5F8770FACFAF92BF92DC
:101BC000CF92DF92EF92FF920F931F93CF93DF9309
:101BD000C090A703D090A803E090A903F090AA03B7
:101BE00040916B0350916C0360916D0370916E0393
:101BF000C42AD52AE62AF72ACFE1D0E0082F10E040
:101C000026E0929F000D111D11249CE3A92EBC2EED
:101C1000D701C6010C2E04C0B695A7959795879558
:101C20000A94D2F780FD0FC0219788F7B12C8B2D35
:101C3000DF91CF911F910F91FF90EF90DF90CF90A8
:101C4000BF90AF900895AC9EF001AD9EF00D1124B1
:101C5000E00FF11FEE0FFF1FEE54FF4F859194919F
:101C60000E94220C019701F3E2CFCF93DF93EC01A6
:101C70000E94DE0DEC2FF0E096E0D99FE00DF11D03
:101C800011249CE3899FE00DF11D1124EE0FFF1F2D
:101C9000EE54FF4F85919491DF91CF910C94220CDB
:101CA000E92FEE0FE90FEE0F8E0F982F97708695A4
:101CB0008695869525E0829FF0011124E354FD4F1F
:101CC00050E040E080E0219130E0092E02C03695DE
:101CD00027950A94E2F721703327042E01C0220FC2
:101CE0000A94EAF7822B4F5F5F4F4530510559F751
:101CF0000895E92FEE0FE90FEE0F8E0F982F9770D2
:101D000041E001C0440F9A95EAF78695869586953D
:101D100095E0899FF0011124E354FD4F30E020E06D
:101D200070E05191DF011197CB01022E02C0969510
:101D300087950A94E2F7817081958527842385270A
:101D40008C932F5F3F4F2530310559F70895282F89
:101D50008091A7039091A803A091A903B091AA0331
:101D60000097A105B10549F004C0B695A7959795D0
:101D700087952A95D2F78170089580E00895FC0137
:101D8000808191810E94350E92959F70963091F0DE
:101D900058F4925F9F70923058F4803F19F030F4FD
:101DA000883E30F481E008959A5FF4CF843FD1F308
:101DB00080E00895883EB0F3813FD1F7F3CFCF9212
:101DC000DF92EF92FF926C01EE24FF2420E0C11419
:101DD000D104E104F10419F0C701B60120E1C72ED6
:101DE000D82EE92EFF24C114D104E104F10419F026
:101DF000285FC701B6016B017C0154E0F694E794BB
:101E0000D794C7945A95D1F7C114D104E104F104D1
:101E100019F02C5FC701B6016B017C0142E0F6941A
:101E2000E794D794C7944A95D1F7C114D104E1043B
:101E3000F10419F02E5FC701B60196958795779545
:101E40006795672B682B692B09F02F5F822FFF9016
:101E5000EF90DF90CF900895AC01442751709C0122
:101E60002227327094FF08C080E0452B09F080E102
:101E7000232B49F08062089581E0452B09F480E02E
:101E8000232B09F082600895CF93DF93C0915D0703
:101E9000D0915E078A30C1F420915405CE01875558
:101EA0009540622F70E00E94B233281B822F66E0BB
:101EB0000E94C633C82FC15018F4DF91CF91089506
:101EC00080E20E94440FF7CF8D30E9F4C755D5402A
:101ED00020915405622F70E0CE010E94B233281B7E
:101EE000822F9E01280F311D2115324018F080E00D
:101EF000D0E0C0E0C80FD11DC95ADA4FD0935E07B9
:101F0000C0935D07DACF96E0FE01A7E5B7E0019048
:101F10000D929A95E1F7803E08F458C086E0FE01E4
:101F200011928A95E9F7C0915D07D0915E0746E06E
:101F300050E0BE0187E597E00E9451349E0127558D
:101F40003540892B41F1C90145E0969587954A9521
:101F5000E1F741E050E0BA0102C0660F771F8A95B1
:101F6000E2F7CB016091550570915605862B972BB2
:101F7000B9016B5F7F4FE5E076956795EA95E1F7EC
:101F800002C0440F551F6A95E2F7842B952B90935E
:101F90005605809355052A5F3F4F40915405642FA5
:101FA00070E0C9010E94B233481B463010F4240F80
:101FB000311D211572E0370710F030E020E0295A7A
:101FC0003A4F30935E0720935D0777CFF6E08F9FFF
:101FD000B00111246758754F46E050E0CE010E94D1
:101FE0004834A1CFCF93DF93EC01FE01849181119E
:101FF00003C0DF91CF9108950E94440F2196F5CF41
:102000008CEA90E00C94F20F8091A5039091260346
:10201000892B8093B4029091A603992391F0892B88
:102020008093B40220E086EB92E0FC013191CF0175
:1020300031112F5FF2E08C3B9F07B9F721110E940D
:10204000A10D48E050E06EE173E084EB92E00E9465
:102050005134892BA9F088E0E4EBF2E0AEE1B3E083
:1020600001900D928A95E1F7E091FE04F091FF0452
:10207000309731F00280F381E02D84EB92E00994F7
:10208000089590E080E00E94F40990E080E00E94D2
:10209000DE09109226030C9404100F931F938B01FA
:1020A0009C010670112722273327063011052105D0
:1020B000310569F468606093A7037093A803809367
:1020C000A9039093AA031F910F910C944110677F6D
:1020D000F2CF0F931F9341E050E060E070E004C046
:1020E000440F551F661F771F8A95D2F7CB01BA019F
:1020F00060957095809590950091A7031091A80325
:102100002091A9033091AA03602371238223932392
:102110001F910F910C944D1090911D038095892370
:1021200080931D03282F277091F4282F082E000C70
:10213000330B9217130659F09091890392FD07C053
:102140008595859585950E94691010921D030895C7
:102150000F931F9341E050E060E070E004C0440F33
:10216000551F661F771F8A95D2F78091A70390911C
:10217000A803A091A903B091AA038A019B01082B8F
:10218000192B2A2B3B2BC901B8011F910F910C94DD
:102190004D1060936B0370936C0380936D03909369
:1021A0006E030C9441101092A503E6EBF2E086E07A
:1021B000DF011D928A95E9F70C9441101F93CF938C
:1021C000DF93CDB7DEB7AA970FB6F894DEBF0FBE88
:1021D000CDBF89E195E02091F100FC012193CF0171
:1021E000F5E081329F07B9F780911A05833009F431
:1021F00070C0B8F4813009F447C0823009F4B1C02E
:102200008091E80083FF7EC28091190590911A05A4
:102210009A3008F077C2E92FF0E0E25EFA4C0C94B5
:10222000E6338A3009F48CC08B3009F46FC08930F2
:1022300039F780911905813219F780911D05909128
:102240001E050297E8F68091E800877F8093E800FA
:102250008091E80082FF38C09091F3008091F200F5
:10226000029731F48091F100813011F0863021F431
:102270008091F10080930C058091E8008B7780932A
:10228000E8000E94BD08BCCF80911905813A09F091
:10229000B7CF8091E800877F8093E80080911D058B
:1022A00090911E05892B61F468E08DE095E070E067
:1022B0000E946F098091E8008B778093E800A0CF9F
:1022C00060E090E080E0F3CF809117058111C0CFEE
:1022D00097CF80911905813A09F092CF80911D0521
:1022E00090911E05892B09F08BCF8091E800877FA4
:1022F0008093E8008091E80080FFFCCF809164012A
:102300008093F1008091E8008E77B9CF8091190514
:10231000813209F075CF80911D0590911E05892BA2
:1023200009F06ECF8091E800877F8093E8000E94DB
:10233000BD0880911B05809364010E94D31060CF7B
:1023400080911905813209F05BCF8091E800877F89
:102350008093E8000E94BD0880911C0580930B05C6
:102360004FCF80911905813A09F04ACF8091E8005A
:10237000877F8093E8008091E80080FFFCCF809108
:102380000B05BECF803899F0823809F0BBC180912F
:102390001D058F70873008F0B5C18093E9008091EA
:1023A000EB0085FB882780F91092E90006C0809138
:1023B000150590911605911182609091E800977F24
:1023C0009093E8008093F1001092F1008091E80072
:1023D0008E7794C1882309F482C1823009F092C1BA
:1023E00080911B05811185C180911D058F702FEF94
:1023F000280F263008F086C18093E9002091EB0079
:1024000020FF77C1933031F48091EB00806280939C
:10241000EB006FC19091EB0090619093EB0021E095
:1024200030E001C0220F8A95EAF72093EA0010926B
:10243000EA008091EB008860EACF811163C11091BE
:102440001B051F778091E3008078812B8093E30048
:102450008091E800877F8093E8000E94BD0880910A
:10246000E80080FFFCCF8091E30080688093E30068
:1024700082E0111183E08093170544C180588230B7
:1024800008F040C180911B0590911C058C3D23E014
:102490009207A1F583E08A838AE289834FB7F89493
:1024A000DE01139620E03EE051E2E32FF0E050938E
:1024B0005700E49120FF03C0E295EF703F5FEF709B
:1024C0008E2F90E0EA30C0F0C7968D939D932F5FDA
:1024D000243159F74FBF8091E800877F8093E8004F
:1024E0006AE270E0CE0101960E946F098091E800D7
:1024F0008B778093E80006C1C096E7CF40911D0519
:1025000050911E05292F33272330310509F444C08B
:1025100078F52130310509F46FC08BE390E0E2E0FB
:10252000FAE02230310509F0EDC02091E800277F64
:102530002093E80020911F05309120058217930712
:1025400008F49C0140E02115310509F064C04111F7
:1025500062C08091E80082FDC9CF80911705882371
:1025600029F2853019F28091E80083FFF2CFBECFC7
:1025700021323105A9F12232310509F0C3C04115DC
:10258000510509F443C04130510509F0BBC082E355
:1025900090E0E0E9F9E0C9CF992781309105C1F0D9
:1025A000009759F0029709F0ADC0EFE4FAE0E4912A
:1025B0008E2F90E0EFE4FAE007C0E5E7FAE0E4915F
:1025C0008E2F90E0E5E7FAE0009709F49BC0ADCFCD
:1025D000EFE5FAE0E4918E2F90E0EFE5FAE0F4CF3A
:1025E0004115510571F04130510509F08BC089E06A
:1025F00090E0EDE2FAE099CF82E190E0EDE3FAE0DD
:1026000094CF89E090E0E4E1FAE08FCF80E490E0BD
:10261000E2ECF9E08ACF80911705882309F466CFB0
:10262000853009F463CF8091E80083FD5FCF80910E
:10263000E80082FD8ECF8091E80080FF84CF9091EA
:10264000F3008091F2002115310519F088309105D1
:1026500050F041E0089709F040E08091E8008E7763
:102660008093E80070CF44914093F100319621505F
:1026700031090196E8CF803809F044C08091E80024
:10268000877F8093E800809118058093F1009ECEAB
:10269000811138C010911B051230A0F58091E8001F
:1026A000877F8093E800109318050E94BD081123CE
:1026B00011F084E005C08091E30087FDFACF81E04E
:1026C0008093170542E061EC81E00E94DC0842E261
:1026D00061EC82E00E94DC088091170513C08091B4
:1026E0001B05813079F481E0933009F080E080931C
:1026F00016051092E9008091E800877F8093E8003A
:102700000E94BD088091E80083FF0AC08091E80024
:10271000877F8093E8008091EB0080628093EB00DC
:10272000AA960FB6F894DEBF0FBECDBFDF91CF9152
:102730001F910895882341F0809590912603892365
:10274000809326030C9404100895882339F0909107
:102750002603982B909326030C9404100895882345
:1027600021F00E94A70D0C9404100895882339F0DD
:102770009091A503982B9093A5030C9404100895B1
:10278000CF92DF92EF92FF920F931F93CF93DF933D
:102790006C017B0164E670E088E70E94ED30EC019B
:1027A00097FD12C010E000E0F601E00FF11F8491E8
:1027B00064E670E00E946731EC01892B29F40F5F19
:1027C0001F4F0E151F0581F70E94EA31CE01DF91E0
:1027D000CF911F910F91FF90EF90DF90CF900895D0
:1027E0008091FA049091FB04911103C091E0892734
:1027F0000895882369F062E070E08EE899E00E9415
:10280000C013892B19F08091FA0408951092FA04EC
:102810008091FA04EBCFCF93C091FA048091FB042E
:102820008823D1F00E94D209605A75418F4F9F4F83
:102830006093F6047093F7048093F8049093F9047E
:10284000C11108C062E070E08CE899E00E94C013FA
:10285000892B29F0C091FA048C2FCF91089581E043
:102860008093FA04F7CF809307057093090560936E
:10287000080580911705843001F582E08093E90016
:102880008FEF9091E800815095FD06C095ED9A95E7
:10289000F1F700008111F5CF8091E80085FF0DC0B0
:1028A00050E040E063E070E087E095E00E9493082C
:1028B0008091E8008E778093E8000895BC0184E061
:1028C0000C943314BC0183E00C943314CF93DF9346
:1028D000EC0181E08093E9008FEF9091E800815056
:1028E00095FD06C095ED9A95F1F700008111F5CFA1
:1028F0008091E80085FF14C050E040E068E070E09F
:10290000CE010E9493088091E8008E778093E800C2
:1029100088E0FE01ADE0B5E001900D928A95E1F707
:10292000DF91CF910895539A3BB1377F2BB1286047
:102930004FB7F89482E494E0FC015191CF0168E034
:102940002BB9000000C057FF3BB9550F000000C075
:1029500000C000C03BB900C06A9591F7F4E0863F23
:102960009F0751F74FBF8FE594E00197F1F700C043
:10297000000008959F92AF92BF92CF92DF92EF92A4
:10298000FF920F931F93CF93DF937C015B016A014A
:102990008091770301E010E08A3010F40AE010E043
:1029A000C1E0D0E0F894B501C701F6010995982E71
:1029B0000E94C60B911004C021960C171D076CF4E1
:1029C000892DDF91CF911F910F91FF90EF90DF90B4
:1029D000CF90BF90AF909F900895CC9F9001CD9FD6
:1029E000300D300D112490E080E045E34A95F1F779
:1029F0000000019682179307C1F7D4CF809131036D
:102A0000811110C08091D80080618093D8008AE144
:102A10008A95F1F700C08091D90080FF0AC081E05B
:102A20008093310381E090913103913009F080E08F
:102A3000089582E0809331030E94430810921705A5
:102A4000F1CF2F923F924F925F926F927F928F922F
:102A50009F92AF92BF92CF92DF92EF92FF920F932D
:102A60001F93CF93DF9300D000D000D0CDB7DEB757
:102A7000A82E2B01E09065018CE0E89E102D11241A
:102A80003CE0F32EF10EFD820F2D0D3310F02CE300
:102A90002D830E94FE14882329F03D813F3110F0E0
:102AA0008EE18D830E94FE14811103C01E3108F453
:102AB0001EE170902105E12FF0E0FC83EB83CF0154
:102AC000880F991F8C010E531E4F48018A2D90E0EC
:102AD0009C012F5F3F4F3A832983312C212C1D818C
:102AE0002B81211758F00E94FE14882309F49EC000
:102AF00081E01E3108F49FC080E09DC0EB81FC8125
:102B0000EA58FD4F8081909166018923E9F0609138
:102B10004F057091500589819A818F5D9A4F6C01A4
:102B2000BA2C80E0B714D0F020915105082F029FF5
:102B3000012D1124802F0E94300B462F282F672F44
:102B40008B819C810E94140B2B813C812F5F3F4F16
:102B50003C832B8332E0830E911CC1CFF60191910F
:102B60006F01F40144AD491B550B25ADF60197816A
:102B7000291B330B449FD001459FB00DB00D11248C
:102B8000229FF001239FF00DF00D1124EA0FFB1F8F
:102B9000E230F105E4F4EE8390915205192F01E043
:102BA000100F08F41FEFF601EE0FFF1FE152F54082
:102BB0000588F689E02D7101E19FE12CF19FE00C81
:102BC000F11C11240E81F2010995B394ABCF9FEF54
:102BD000E13E0EE1F00744F4DF0105E0B695A7956C
:102BE0000A95E1F798E09A0F66246394E62CE90EC3
:102BF000FF24FF1CD701B595A795AE83AA9F70014E
:102C0000AB9FF00CF00C1124EE15FF0538F49FEF8C
:102C10009A0F961558F76A946E82BECF0E810F3FB9
:102C200009F4BACF662463946A0EF3CF81E01D8164
:102C30001C3308F061CF26960FB6F894DEBF0FBEA6
:102C4000CDBFDF91CF911F910F91FF90EF90DF905B
:102C5000CF90BF90AF909F908F907F906F905F903C
:102C60004F903F902F9008950E94FE14882351F0BA
:102C7000E091FE04F091FF04309721F00190F08183
:102C8000E02D099480E00895882309F44BC0823830
:102C900071F40E94341681FF45C089E30E94BB0D88
:102CA0000E94041089E30E94AE0D0C940410833836
:102CB00059F40E94341680FF35C083E50E94BB0D95
:102CC0000E94041083E5EFCF843859F40E94341633
:102CD00082FF28C087E40E94BB0D0E94041087E495
:102CE000E2CF9CEF980F913AF0F290E2980F983073
:102CF00050F4877091E001C0990F8A95EAF7892F07
:102D00000E94A70DD2CF9BE5980F933020F490E05E
:102D100080E00C94F409885A873120F490E080E038
:102D20000C94DE090895CF93DF93EC010E944416C2
:102D3000CE010E942C0FDF91CF910C949A13FF9239
:102D40000F931F93CF93DF93EC01F62E042F122FD6
:102D50000E94FE1481110FC0CE31D1057CF06E9718
:102D6000FE01EE0FFF1FEC0FFD1FEE5BFB4FF1822C
:102D70000083128303C0CE31D10594F3DF91CF914C
:102D80001F910F91FF9008950F931F930E94FE14BF
:102D9000882321F01F910F910C94D2090E94D2092F
:102DA000009178031091790320917A0330917B038D
:102DB000600F711F821F931F1F910F910895CF9273
:102DC000DF92EF92FF926B017C010E94FE14882338
:102DD000A1F02FB7F89460910305709104058091DC
:102DE0000505909106052FBF6C197D098E099F0975
:102DF000FF90EF90DF90CF9008950E94C416F4CF1B
:102E0000CF93C82F882309F488C08238C1F40E9468
:102E1000341681FD82C089E30E94BB0D0E9404101C
:102E20002FEF81EE94E0215080409040E1F700C008
:102E3000000089E30E94AE0DCF910C9404108338FA
:102E4000A1F40E94341680FD68C083E50E94BB0D8A
:102E50000E9404102FEF81EE94E0215080409040BA
:102E6000E1F700C0000083E5E5CF8438A1F40E94BB
:102E7000341682FD52C087E40E94BB0D0E940410EC
:102E80002FEF81EE94E0215080409040E1F700C0A8
:102E9000000087E4CFCF8CEF8C0F813A68F4E6EB2B
:102EA000F2E08191C81799F122E0EC3BF207C9F7F3
:102EB0008C2F0E94BB0DC0CF80E28C0F883068F44D
:102EC000C77021E030E001C0220FCA95EAF7809177
:102ED000A503822B8093A503AFCFEBE5EC0FE33086
:102EE00040F4F0E0E459FE4F808190E0CF910C94E3
:102EF000F409C85AC73188F4EC2FF0E0EE0FFF1F39
:102F0000E159FE4F80819181CF910C94DE098C2F85
:102F10000E94AE0D0E940410CBCFCF9108951F9355
:102F2000CF93DF93182FEB010E940017209731F405
:102F3000812FDF91CF911F910C9444168FE99FE070
:102F40000197F1F700C000002197F0CFCF93C82F71
:102F50000E942C0F0E94A5138C2FCF910C94001768
:102F6000CF93C62F811135C06091A7037091A8033C
:102F70008091A9039091AA030E94DF0E823079F01C
:102F80008330F9F0811108C070E060E081E5C11183
:102F900001C082E50E948F1781E0CF910895CC2374
:102FA00049F08BE291E00E94A6178BE291E00E942B
:102FB0009316F2CF8BE293E10E94A6178BE293E186
:102FC000F6CFCC2319F00E94810AE6CF0E948D0A29
:102FD000E3CF813009F76091A7037091A803809136
:102FE000A9039091AA030E94DF0E8130C9F08823C3
:102FF00039F0833089F6CC23D1F00E94BA0ACCCFC5
:10300000CC2339F08FE491E00E94A6178FE491E081
:10301000CECF80E591E00E94A61780E591E0C7CF72
:1030200070E060E089EAC111B5CF8AEAB3CF0E94AF
:10303000B10AB2CFEEE4F5E085E0808380916901CA
:1030400090916A01A0916B0181839283A3838FE7A2
:1030500084838FEF858346E050E06CE170E0CF0120
:103060000E94853410924D050895CF9384E090E03E
:103070000E947734C82F82E290E00E947734982F24
:103080008C2FCF9108951F93CF93DF9300D000D062
:10309000CDB7DEB74091630350916403609165033F
:1030A000709166032FB7F894809103059091040501
:1030B000A0910505B09106052FBF841B950BA60BAB
:1030C000B70B11E084369105A105B10570F10E949E
:1030D000C4166E5F7F4F8F4F9F4F69837A838B83B8
:1030E0009C8380912D0190912E018D5B9C4F40918E
:1030F0002C0150E04530510510F044E050E0BE0195
:103100006F5F7F4F0E945E3485E090E00E943C3309
:10311000182F882351F00E94D209609363037093A3
:1031200064038093650390936603812F0F900F9043
:103130000F900F90DF91CF911F9108954F925F9262
:103140006F927F928F929F92AF92BF92EF92FF9277
:103150000F931F93CF93DF937B01FB01408051803E
:10316000628073809FB7F894809003059090040567
:10317000A0900505B09006059FBF84189508A60885
:10318000B708F4E68F169104A104B10418F4C1E065
:10319000442329F1C82F880FDD0BFE0183E0EE0FD9
:1031A000FF1F8A95E1F7EC5FFE4F818192818D5B75
:1031B0009C4F408150E00417150708F4A801B9019D
:1031C0000E945E34CE010E943C33C82F882339F020
:1031D0000E94D209F70160837183828393838C2FCD
:1031E000DF91CF911F910F91FF90EF90BF90AF9023
:1031F0009F908F907F906F905F904F9008950F9366
:103200001F93CF93DF9300D000D000D00F92CDB7A3
:10321000DEB786E0EEE4F5E0DE01119601900D9256
:103220008A95E1F7809141048F8347E050E06CE597
:1032300073E0CE0101960E94513441E0892B09F4DC
:1032400040E007E010E09E012F5F3F4F63E773E02F
:1032500088E00E949E1827960FB6F894DEBF0FBE36
:10326000CDBFDF91CF911F910F9108950F931F93C1
:1032700041E0009154031091550320915603309181
:1032800057038091A7039091A803A091A903B0913F
:10329000AA03081719072A073B0709F440E004E0CE
:1032A00010E027EA33E06FE673E086E00E949E18A4
:1032B000882301F141E000915803109159032091B6
:1032C0005A0330915B0380916B0390916C03A09142
:1032D0006D03B0916E03081719072A073B0709F41D
:1032E00040E004E010E02BE633E067E673E087E0BF
:1032F0000E949E181F910F9108950F931F93CF93D3
:10330000DF93EC0145E050E069E473E00E94513442
:1033100041E0892B09F440E005E010E09E016BE3F9
:1033200073E082E00E949E18DF91CF911F910F9170
:1033300008954F925F927F928F929F92AF92BF9229
:10334000CF92DF92EF92FF920F931F93CF93DF9371
:103350000F92CDB7DEB7C62E4A015901482E880F0D
:103360005508C2010E943C33782E882309F480C09E
:10337000C20133E0880F991F3A95E1F7FC01EC5F39
:10338000FE4F438150E04115510511F041E050E0FE
:103390008C5F9E4FFC01648175816D5B7C4FCE011B
:1033A00001960E945E34F4014081518162817381F3
:1033B0002FB7F8948091030590910405A09105051D
:1033C000B09106052FBF841B950BA60BB70B843657
:1033D0009105A105B10540F4B701C8010E944A0A50
:1033E0009981891709F444C00C2C000CDD08C60132
:1033F0000E943C33782E811113C0712C872D0F90C1
:10340000DF91CF911F910F91FF90EF90DF90CF90C0
:10341000BF90AF909F908F907F905F904F90089556
:10342000C60123E0880F991F2A95E1F7FC01EC5FA4
:10343000FE4F438150E0E416F50608F4A7018C5FC7
:103440009E4FFC01648175816D5B7C4FC5010E94BC
:103450005E34B701C8010E944A0A99818913CDCF11
:103460000E94D209F4016083718382839383C6CF63
:10347000A701B801C5010E945E34C0CFCF92DF9290
:10348000EF92FF920F931F93CF93DF930F92CDB7DD
:10349000DEB7EE24E394F12C0FE413E09E012F5FDE
:1034A0003F4F4FE353E064E083E00E949919082FF7
:1034B000882321F1C0908A038C2D90E09C01205636
:1034C0003C4F79011981F9018081181BD12E80E0D0
:1034D0000AC0DA94F70180818F5F808360E08C2DD1
:1034E0000E94B017802F1D14A4F3912F17FD90E0B8
:1034F000191B11110EC081110E949F0D802F0F907A
:10350000DF91CF911F910F91FF90EF90DF90CF90BF
:1035100008951F5FF70180818150808361E08C2DC9
:103520000E94B017802FE5CFCF92DF92EF92FF92EB
:103530000F931F93CF93DF9300D000D00F92CDB79E
:10354000DEB76B0185E0E82EF12C04E413E09E0168
:103550002F5F3F4F47E353E061E080E00E949919FD
:10356000882349F095E0FE013196A2E3B3E0019093
:103570000D929A95E1F795E0E2E3F3E0D601019030
:103580000D929A95E1F70F900F900F900F900F907A
:10359000DF91CF911F910F91FF90EF90DF90CF902F
:1035A000089569EE7EEF90E080E00E94B33460E021
:1035B00082E090E00E94953460E083E090E00E9419
:1035C000953410926B0310926C0310926D0310925D
:1035D0006E0360E084E090E00E94953460E082E257
:1035E00090E00E94953460E085E090E00E94953480
:1035F00060E086E090E00E9495346FEF87E090E015
:103600000E94953440E050E0BA0188E090E00E94CA
:10361000A73460E08DE090E00E94953440E050E0F7
:10362000BA0188E190E00E94A73460E087E190E071
:103630000E94953440E050E0BA018CE190E00E9495
:10364000A73470E060E080E290E00E94B33440E094
:1036500050E0BA0188E190E00E94A73440E050E0D9
:10366000BA018FE090E00E94A73440E050E0BA0138
:1036700083E190E00C94A734CF93C0918903C2FBFF
:10368000992790F9981799F080FBC2F9C0938903A4
:103690006091880384E090E00E9495346C2F82E270
:1036A00090E00E94953482E0CF910C948C10CF91E1
:1036B00008951F920F920FB60F9211242F933F93EC
:1036C0004F935F936F937F938F939F93AF93BF932A
:1036D000CF93DF93EF93FF93D091E900DF70809158
:1036E000EC00C82FC17080FDC0E81092E900809105
:1036F000F000877F8093F00078940E94DE10109293
:10370000E9008091F00088608093F000CD2BCF70AD
:10371000C093E900FF91EF91DF91CF91BF91AF91FD
:103720009F918F917F916F915F914F913F912F91D9
:103730000F900FBE0F901F9018951F920F920FB60B
:103740000F9211242F933F934F935F936F937F9327
:103750008F939F93AF93BF93EF93FF938091E1007B
:1037600082FF09C08091E20082FF05C08091E100E4
:103770008B7F8093E1008091DA0080FF24C08091EC
:10378000D80080FF20C08091DA008E7F8093DA001D
:103790008091D90080FF9DC080E189BD82E189BD13
:1037A00009B400FEFDCF81E08093170580910A05E2
:1037B000811109C00E9443080E940E098091E20015
:1037C00084608093E2008091E10080FF17C08091C7
:1037D000E20080FF13C08091E2008E7F8093E200C0
:1037E0008091E20080618093E2008091D800806245
:1037F0008093D80019BC85E0809317058091E10083
:1038000084FF2BC08091E20084FF27C080E189BD46
:1038100082E189BD89B5982F917080FFFBCF80919F
:10382000D8008F7D8093D8008091E1008F7E8093B7
:10383000E1008091E2008F7E8093E2008091E200BF
:1038400081608093E20080911805882309F447C0C5
:1038500084E080931705809117058091E10083FF34
:1038600027C08091E20083FF23C08091E100877F21
:103870008093E10082E080931705109218058091F3
:10388000E1008E7F8093E1008091E2008E7F809343
:10389000E2008091E20080618093E20042E060E01B
:1038A00080E00E94DC088091F00088608093F00046
:1038B000FF91EF91BF91AF919F918F917F916F9108
:1038C0005F914F913F912F910F900FBE0F901F90DE
:1038D000189519BC1092170510920A0574CF8091A3
:1038E000E30087FD93E090931705B5CF78941F927E
:1038F0001FB61F9211248F939F93AF93BF93809114
:10390000030590910405A0910505B0910605019667
:10391000A11DB11D8093030590930405A093050597
:10392000B0930605BF91AF919F918F911F901FBEDD
:103930001F9018959C014FB7F894809103059091C2
:103940000405A0910505B09106054FBF821B930B9E
:1039500008952FB7F8948091030590910405A091E4
:103960000505B09106052FBF08950F931F93CF93C0
:10397000DF93C62FD42F022FFC0182818823A1F070
:1039800060934C050E94A91C90934B0580934A05B7
:10399000C77081E001C0880FCA95EAF7DF91CF9127
:1039A0001F910F910C94B61380914C05681337C08A
:1039B00080914A0590914B050E949A1C883C910584
:1039C00070F510E21D0FCD17B9F080E28C0F883032
:1039D00040F4C77081E001C0880FCA95EAF70E94E1
:1039E000AF13183048F481E09D2F977001C0880F05
:1039F0009A95EAF70E94B61370E060E0802F0E946B
:103A00008F17183098F4D77081E001C0880FDA95CD
:103A1000EAF7DF91CF911F910F910C94AF13C7700C
:103A200081E001C0880FCA95EAF7F3CFDF91CF910B
:103A30001F910F9108954F925F926F927F928F9294
:103A40009F92AF92BF92CF92DF92EF92FF920F932D
:103A50001F93CF93DF9300D000D00F92CDB7DEB786
:103A60007C01FC0183819481892B39F01081D18004
:103A7000812F8D218F3F09F0B2C40F900F900F90CE
:103A80000F900F90DF91CF911F910F91FF90EF90CA
:103A9000DF90CF90BF90AF909F908F907F906F906E
:103AA0005F904F9008950E94DE0D082F682F898146
:103AB0009A810E94790EE12FF0E026E0D29EE00D7F
:103AC000F11D11243CE3039FE00DF11D1124EE0FC5
:103AD000FF1FEE54FF4F05911491043F8CE518072A
:103AE00009F49CC0D0F5093DECE51E0709F492C02D
:103AF0000A3DFCE51F0709F49DC0083D2CE51207AF
:103B0000D1F526E241EE61EEC7010E94B51C80911D
:103B10001D03877009F4B1CFF7018281882309F46E
:103B2000ACCF8091890382FDA8CF82E00F900F90E7
:103B30000F900F900F90DF91CF911F910F91FF90F9
:103B4000EF90DF90CF90BF90AF909F908F907F903D
:103B50006F905F904F900C948C10063F3CE51307DC
:103B600009F464C008F45EC027E245EE66EE073F44
:103B70009CE5190749F2F7018281882309F440C4C2
:103B800010924C050430FDE51F0708F056C00B3FAE
:103B90002CE5120730F4C80182509C45449708F088
:103BA00056C00E9435189093890380938803013191
:103BB0009CE5190709F41FC108F09DC00930FCE518
:103BC0001F0709F402C108F06AC005303CE513077D
:103BD00009F4F3C008F050C003309CE5190709F45C
:103BE000E2C008F0E6C080918803816002301C4585
:103BF00009F4DCC0609188031091890384E090E0AF
:103C00000E949534612F82E290E00E9495340E94D8
:103C1000D3107DCF27E245EE65EE76CF26E241EE6A
:103C200060EE72CF27E245EE64EE6ECF26E241EE03
:103C300062EE6ACF28E241E0EFCF02363DE513079E
:103C400009F4AFCF063A8DE5180709F4AACF06317B
:103C50002CE5120709F0E1C38091A5038A7A91E06F
:103C600009F490E09093BC028111EFC089E20E94B8
:103C7000BB0D0E9404104BCF8091880380620730F7
:103C80002CE5120709F492C0809188038061083006
:103C90001C4508F48BC080918803806487C00D3078
:103CA0008CE5180709F49BC098F4809188038E7FF7
:103CB0000B30ECE51E0709F479C0809188038C6015
:103CC0000C301C4508F472C0809188038D7F6EC053
:103CD000809188038F7E0F302CE5120709F466C0AF
:103CE00080918803877F00311C4508F45FC0809174
:103CF00088038F7D5BC00E3F8CE5180709F477C001
:103D000050F50531ECE51E0709F47FC098F4809169
:103D10008803837F03312CE5120709F447C008F4B8
:103D20006EC00E94D31090918803892F97FB87F96A
:103D300080583CC00C3F8CE5180709F442C008F0DD
:103D400052C08091890381600B3F1C4509F052CF1E
:103D5000809389034FCF0230FDE51F0709F461C04E
:103D600090F4809189038C7F01153DE5130781F361
:103D700090F180918903982F909591708E7F892B77
:103D800090FB81F9E5CF02369DE5190709F44FC094
:103D9000063AEDE51E0709F451C003301D4509F050
:103DA00029CF60E03FC080918803826080938803C0
:103DB00021CF809188038460F9CF80918803886047
:103DC000F5CF809189038260C3CF0E94D310809188
:103DD00088038068EBCF809189038360B9CF80919D
:103DE00088038B7FE3CF809189038E7FB1CF809151
:103DF00089038D7FADCF809188038F7BD7CF0E94C1
:103E0000D310809188038F77D1CF8091880382FB74
:103E1000992790F921E0922790FB82F990FB83F992
:103E2000C5CF61E08EE090E00E949534E3CE9091A2
:103E30008803892F8F7E94FF8061B8CF909188038B
:103E4000892F8E7F90FF8160B1CF85E310CF85E30E
:103E5000E1C243EC5AE06CEC7AE00E94600A57CE73
:103E60004CEC5AE063EC7AE0F8CF41EB5AE06AEBB5
:103E70007AE0F3CF41E85AE06DE87AE0EECF81E0F6
:103E80000E942A0844CE0E94D3103FEF84E39CE0B6
:103E9000315080409040E1F700C0000081E0809305
:103EA000E00080E28093D8001092C900EFE1FEE4C8
:103EB0003197F1F700C0000087E090EBDC018093C0
:103EC0005F0790936007A0936107B093620788E152
:103ED0009CE00FB6F894A895809360000FBE909375
:103EE0006000FFCF81E0B9C280E0B7C2812F902F80
:103EF0000E94500ED82EC4C2212F2F70C22E107FC8
:103F000019F0C29420EFC222DD20B9F0CC2069F074
:103F100080E2800F883010F0811009C08091A503E5
:103F2000C82AC092A5030E940410802F4BC0809124
:103F30002603C82AC0922603F6CF802F0E9444167B
:103F4000CC2009F441C0005E083010F0811004C09C
:103F50008C2D0E94A70D06C0C09480912603C82214
:103F6000C09226030E9404102FC0312F3F70C32E31
:103F7000107F103219F0C29490EFC922882089F086
:103F800081E0881609F488C0DD2009F492C09920E8
:103F900009F488C0F701858180FFC7CF8F708583C2
:103FA00081C02091890322FF54C0DD2009F44AC05A
:103FB000CC2039F08091A503C82AC092A5030E94A5
:103FC000041080E00E940017EA2DE850FF0B3497A0
:103FD00010F40E943416BB20A9F080911D0380FDCF
:103FE00011C0F70112828595859585950E94A810CC
:103FF000C7010E941B1D80911D03859585958595A0
:104000000E94691085E0F701DE01119601900D9282
:104010008A95E1F789819A810E94500E9A81E981FF
:10402000F0E026E0929FE00DF11D11243CE3839F18
:10403000E00DF11D1124EE0FFF1FEE54FF4F85918F
:1040400094911BCD80E00E944416CC2009F4BCCF93
:104050007FCFDD20A1F09091A6038C2D892B9110AC
:1040600003C00E94B613B0CFE1E09E12FACF22FD4A
:10407000ABCF981709F4A8CF8093A603A5CF9110D2
:1040800006C00E94A10D8C2D0E94AF139DCFF1E0C0
:104090009F1609F499CFF5CFDD2031F025E02915E1
:1040A00008F492CF8C2DDDCF34E0391508F48CCF95
:1040B000EACF992041F3F9E38F128AC12FEF37EE4F
:1040C00083E0215030408040E1F700C0000080C113
:1040D000812F86958695837061F0813009F074CFC9
:1040E000C8019370D11002C090E080E00E94DE0908
:1040F0006BCFC8019370D11002C090E080E00E94A5
:10410000F40962CF812F837009F066C0D1105CCFB3
:10411000802F829586958770880F880F602F6F702B
:10412000462E512C712C612C082E04C0440C551CB9
:10413000661C771C0A94D2F740E050E0BA0104FFF5
:104140000FC04FE050E060E070E004C0440F551F26
:10415000661F771F8A95D2F74095509560957095A8
:10416000812F869586958370823019F1D8F400915D
:104170006B0310916C0320916D0330916E038130BD
:1041800069F04429552966297729CB01BA016023B2
:104190007123822393230E94C91016CF402A512AEB
:1041A000622A732ACB01BA016429752986299729C5
:1041B000F2CF442955296629772900916B03109184
:1041C0006C0320916D0330916E03CB01BA0160271F
:1041D000712782279327DFCF8695DD2011F0812F6D
:1041E0008170882309F4F0CE802F829586958770A0
:1041F000880F880F602F6F70462E512C712C612C08
:10420000082E04C0440C551C661C771C0A94D2F777
:1042100040E050E0BA0104FF0FC04FE050E060E022
:1042200070E004C0440F551F661F771F8A95D2F7B0
:104230004095509560957095812F869586958370F1
:10424000823019F1D8F40091A7031091A8032091AE
:10425000A9033091AA03813069F0442955296629C0
:104260007729CB01BA0160237123822393230E9413
:104270004D10AACE402A512A622A732ACB01BA01D4
:104280006429752986299729F2CF44295529662959
:1042900077290091A7031091A8032091A9033091D9
:1042A000AA03CB01BA016027712782279327DFCFAA
:1042B0001F70DD2029F0812F0E94A810802FD1CE01
:1042C000802F0E94AF13812F0E9469107DCE802F16
:1042D00092EF891609F43FC0981570F0E0EF8E1642
:1042E000D1F0F1EF8F1691F0DD2009F46CC0911040
:1042F0001CCE812F8F7133C023EF821699F134EFDA
:104300008312F2CF8091890382FF3FC0812F8F718A
:10431000DD20D1F224C0DD20C9F084E0891508F445
:1043200053CE1F7161E070E080E090E004C0660F42
:10433000771F881F991F1A95D2F70091A703109134
:10434000A8032091A9033091AA03ADCF95E0991558
:1043500008F43ACEE6CF812F8F71D110B5CF0E94ED
:10436000A81032CE60E070E0CB01DD2009F47FCFF1
:104370001F7161E070E080E090E004C0660F771F7D
:10438000881F991F1A95D2F772CFDD2089F01F710F
:10439000812F0E94A8108091890382FD07C0E8E068
:1043A0001E9FC0011124836080931D03812FD7CFEE
:1043B00081E00E948C10F1E0F91508F005CE82E052
:1043C0000E948C1001CE992039F0893309F476CE01
:1043D000802F0E944416F8CD812F8F7175CF85E014
:1043E000DE01119601900D928A95E1F7F701228185
:1043F00089819A81211157CB0E94500E082F5BCBE7
:104400000631FCE51F0709F082C08091BC028111D2
:104410001ECD89E20E94AE0D2CCC0B352DE5120786
:1044200009F460CD58F401158CE5180709F42BCD7B
:104430000F3D1C45A1F40E94D11A69CB0C35EDE566
:104440001E0709F451CD0D351D4549F480918903AE
:1044500082FB882780F991E089270E943C1BF701A5
:10446000828110810181882309F440CD812F902F12
:104470000E94DE0DD82E682F812F902F0E94790E7A
:10448000E12FF0E026E0029FE00DF11D11243CE356
:10449000D39EE00DF11D1124EE0FFF1FEE54FF4FD0
:1044A000859194910E94220C8C01882EF701D28074
:1044B000958092945FE0952280911D038770C1F0F2
:1044C000BD2CDD20B1F0812F807F803421F080E28F
:1044D000800F883068F08091890382FD09C082E0F6
:1044E0000E948C1080911D038770BB24B3948111AE
:1044F000B12CA12EA2943FE0A322FBE0FA1508F410
:1045000063CDEA2DF0E0E85DFA4C0C94E63380913F
:10451000A50382720A3C2CE5120709F4ABCCA8F57E
:10452000063C9CE5190709F4A0CCC8F4043CFCE562
:104530001F0709F48ECC08F093CC033C1C4509F00E
:104540008ECF80914E0591E0892780934E05109281
:10455000680180914D05816080934D05D8CA49E975
:104560005AE065EA7AE0083C9CE5190709F475CC45
:104570004AEB5AE061EB7AE0093C1C4508F46DCC4B
:1045800045EA5AE069E97AE068CC0E3CFCE51F0791
:1045900009F475CCB0F445E65AE063E77AE00C3CE8
:1045A0003CE5130709F459CC4DE85AE061E87AE09C
:1045B0000D3C1C4508F451CC43E75AE065E67AE02F
:1045C0004CCC073DECE51E0708F4A1CA0E351D458D
:1045D00009F49DCA44CF1F93CF93DF938091EA02E1
:1045E000807FA9F48091E702882389F080911C03E1
:1045F000D091EB026091E5027091E602A091E80291
:10460000B091E902C62FC72316E0D81304C0DF918A
:10461000CF911F91089590E0109711F0CF3F19F4BA
:1046200001968770F2CF189F9001199F300D1124C9
:10463000F901E451FD4F41814713F2CF4081461308
:10464000EFCF42814111ECCF438154814A1B5B0B78
:10465000483C510528F78091EA028F708061809371
:10466000EA02F901EF50FD4F80818F7080618083F5
:1046700085EE92E00E941B1DDF91CF911F910C945B
:10468000D40DAF92BF92CF92DF92EF92FF920F9331
:104690001F93CF93DF93CDB7DEB761970FB6F89432
:1046A000DEBF0FBECDBF8C0185E0F801DE011D9697
:1046B00001900D928A95E1F7F801E28085EEA82E2F
:1046C00082E0B82E6091E8027091E90261157105EF
:1046D00009F432C19091E5024091E602892F8423CA
:1046E0008F3F09F429C120813181C380D480F090AB
:1046F000E702F601E61BF70BFF2009F4E8C0809102
:10470000EA02582F507FE83CF10508F0ABC0511188
:1047100077C0FE2C431321C092131FC0E1101DC0AF
:104720008F7080618093EA02C5010E941B1D8091F9
:10473000EA02F80185838F2D61960FB6F894DEBFEB
:104740000FBECDBFDF91CF911F910F91FF90EF90E2
:10475000DF90CF90BF90AF900895CD2829F0822FA1
:1047600083238F3F09F003C180E0F82FF170DF2E23
:1047700080FF3CC080911C034091EB0256E0841303
:1047800015C02D873E878D859E850E94350E292F69
:1047900022952F702230F0F0243018F59F70F1F040
:1047A000F8019581907FD1F4D12C1EC090E0589FE4
:1047B000F001599FF00D1124E451FD4F6181361332
:1047C00006C06081261303C06281E6120FC0019605
:1047D0008770D5CF9F7011F0882331F3805E8830C9
:1047E00018F3C8010E941B1DFD2CA5CFEE2009F473
:1047F000A2CF8091EA0281608093EA02F12C9BCFE4
:10480000431306C0921304C0F801EE2009F479C0E6
:10481000C8010E94BF0E882309F1EE20F9F08091B3
:10482000EA02803270F02091E5023091E60238878A
:104830002F831986DB86CA868C87CE0107960E9455
:104840001B1D86E0F801A5EEB2E001900D928A955D
:10485000E1F70E94EB22FF24F3946DCFC8010E9480
:104860001B1DF9CF51110AC085EE92E00E941B1D5D
:1048700086E0F50111928A95E9F7C0CF43130FC086
:1048800092130DC0E1100BC0F8018583C8010E948E
:104890001B1D86E0F50111928A95E9F74CCFC801FE
:1048A0000E94BF0E8823D1F2EE20C1F28091EA026D
:1048B000803238F22091E5023091E6023A83298372
:1048C0001B82DD82CC828E83CE010196B8CFE83C7C
:1048D000F105F8F6FE2CEE2009F243131FC09213E7
:1048E0001DC08091EA0280FD10C0982F907F69F072
:1048F000F8018583903F31F0982F907F905F8F7003
:10490000892B8583C8010E941B1D86E0F801A5EE56
:10491000B2E001900D928A95E1F70DCFC8010E9497
:10492000BF0E81118ECF8091EA0281608093EA02EE
:10493000C8010E941B1DFFCEEE2009F48FCFC801D5
:104940000E94BF0EF82E882309F488CF86E0F80174
:10495000A5EEB2E001900D928A95E1F78091E50213
:104960009091E6020E94350E0E94EB22E4CE81E097
:104970008E25FBCE1F93CF93DF93CDB7DEB767971E
:104980000FB6F894DEBF0FBECDBF4B8B5C8B6D8B2B
:104990007E8B8F8B6111109226031A8A198A85E00B
:1049A000FE017396DE011D9601900D928A95E1F746
:1049B00086E0FE013D96DE01179601900D928A95E4
:1049C000E1F7CE0107960E944123882389F016E083
:1049D00080911C039091EB02891349C067960FB632
:1049E000F894DEBF0FBECDBFDF91CF911F91089528
:1049F00086E0FE013796DE01119601900D928A95B0
:104A0000E1F78A859B85892B11F38F81988589230E
:104A10008F3FE9F22091EB0230E0C90101968770E7
:104A2000992740911C034817190671F40E94D3106E
:104A30001092EB0210921C0386E0E5EEF2E0DF013B
:104A40001D928A95E9F7C3CF96E0929FD001939F7C
:104A5000B00D1124A451BD4FFE01319601900D926D
:104A60009A95E1F78093EB020E94D40DB0CF819F1D
:104A7000C001112484519D4F0E944123882309F4D1
:104A8000ADCF80911C0390E00196877099278093A9
:104A90001C039ECF3F924F925F926F927F928F92B4
:104AA0009F92AF92BF92CF92DF92EF92FF920F93BD
:104AB0001F93CF93DF93782E80916301871124C0D9
:104AC00090914E0593702091620130E081E0921741
:104AD000130609F480E0817080936701809153058B
:104AE00090916601981739F08093660140E060E08C
:104AF00080E00E94160B26E0271560F0E72DF0E01D
:104B0000EC5CFA4C0C94E63381E0E5CF80916701D0
:104B1000811102C080E035C040E060E080E00E948A
:104B2000160BF8CFC09165018CE0C89FC02D1124F1
:104B30001CE01C0F1D3308F01CE30E94FE148823A8
:104B400019F01F3108F01EE10E94FE14811103C00C
:104B5000CE3108F4CEE160914F05709150058091FF
:104B600051050E94300B062FF72EE82ED0E0C1171A
:104B700068F10E94FE14882309F487C081E01E3189
:104B800048F6909165019F5F9093650181110CC07B
:104B900082E08093680180916701811105C07110E6
:104BA00003C083E080936801DF91CF911F910F9143
:104BB000FF90EF90DF90CF90BF90AF909F908F903D
:104BC0007F906F905F904F903F900895FE01EA585C
:104BD000FD4F808190916601892331F02E2D402F69
:104BE0006F2DCE010E94140B2196C1CFC09165019B
:104BF0008CE0C89FC02D11241CE01C0F1D3308F051
:104C00001CE30E94FE14882319F01F3108F01EE1F6
:104C10000E94FE14811103C0CE3108F4CEE1209130
:104C200052052695269531E0230F08F42FEF409189
:104C30003D0450913E0490E080E0429F812D529FC0
:104C4000800D911D1124082FD0E0C11708F091CFDD
:104C5000FE01EA58FD4F808190916601892399F009
:104C600070915005FE01EE0FFF1FEE53FE4F65AD34
:104C7000601B809151050E94300B462F282F672F13
:104C8000CE010E94140B2196E0CF81E01C3308F482
:104C900078CF40CFC09165018CE0C89FC02D112412
:104CA0006CE0562E5C0E152D8CE3851508F41CE384
:104CB00080916701882361F040E060E080E00E941D
:104CC000160BE4EDF3E08CE3DF011D928A95E9F722
:104CD00080916501811115C08091D1039091D2031B
:104CE0000E949A1C21E08233910508F420E0209371
:104CF000D003C29730F00E94A91C9093D2038093F6
:104D0000D103D0E0E12EF12C3AE0832E912C46E045
:104D1000442E5AEA352ECE15DF0534F081E0BBE390
:104D2000B51508F02ECFF6CECE01B4010E94D233D5
:104D30006B015C014A9CC0014B9C900D1124FC014D
:104D4000EC52FC4FE60FF71F60808E539E4FFC0124
:104D5000E60FF71F00810F3F51F110E0F801EA580C
:104D6000FD4F808190916601892309F1362D25E55B
:104D7000321B08F430E070915005232D462D240F8E
:104D800008F42FEF40915105822F880F820F8E5F1C
:104D9000282F249F212D1124822F632D631B0E9415
:104DA000300B462F282F672FC8010E94140B8091CB
:104DB000D003882381F0362D41E0341B08F430E025
:104DC0004A9CC0014B9C900D11248C529C4FC80EE4
:104DD000D91ED6013C9321969ECF809167018823EE
:104DE00071F040E060E080E00E94160BE4EDF3E03B
:104DF0008CE3DF011D928A95E9F71092D30304ED4D
:104E000013E0F12CE12C55245A9480ED882E912C3E
:104E100090EC492E2FE2A22EB12C6701E801612C03
:104E20008091D3038629C9F50E9438348535954091
:104E3000A4F5F8015082F601EE53FE4FE081EF3FFA
:104E400099F02881F0E0213D70F1205D330B429E06
:104E5000C001439E900D1124B5010E94B233262F4C
:104E60004FEFCF010E94140B63942696F6E0CF0E0D
:104E7000D11C2AE06212D4CF3FEFE31AF30A0F5F8E
:104E80001F4F46E0E416F10441F68091D3038F5F93
:104E90008D3198F48093D3033DCE888181508E3F2D
:104EA00050F68883C8CF259DC0011124B4010E940B
:104EB000B233462F20E060E0D4CF1092D30324E039
:104EC00034E089E06AED73E09EEFD901E4EDF3E0B0
:104ED000893021F446A94F3F09F496AB4D914F3FDD
:104EE00031F4ED012197988315964C9315973196DF
:104EF0006E177F0769F78150265031098111E5CF80
:104F000009CE8091210521E0382F321B08F430E0D2
:104F1000832F6BEF7AE00E94211533CE809121051B
:104F200021E0482F421B08F440E0842F63EE7AE032
:104F3000F2CF4F925F926F927F928F929F92AF9239
:104F4000BF92CF92DF92EF92FF92609139047091FD
:104F50003A0480913B0490913C040E94DF166B015F
:104F60007C010E94C4164B015C018092390490922E
:104F70003A04A0923B04B0923C04A0911004E0E1FA
:104F8000F4E08A2F90E04FEF5FEF60E070E04C19A3
:104F90005D096E097F09A91328C0809310048091D0
:104FA0004104811135C090914E05892F837019F00D
:104FB000892F8695869590916801913009F441C0BA
:104FC000992341F1923009F44AC0933009F455C055
:104FD000FF90EF90DF90CF90BF90AF909F908F9019
:104FE0007F906F905F904F900895218D328D2901B1
:104FF000712C612C441555056605770520F4815008
:105000009F5F3296C8CF2C0D3D1D328F218FF8CF78
:1050100080E0D1CF1092650180923D0490923E04D1
:10502000A0923F04B092400489E2E0E1F4E0A1E202
:10503000B5E001900D928A95E1F781E080936801D7
:10504000C7CFFF90EF90DF90CF90BF90AF909F9031
:105050008F907F906F905F904F900C944A25FF90B7
:10506000EF90DF90CF90BF90AF909F908F907F9008
:105070006F905F904F900C94D60A80914D058823D5
:1050800051F046E050E06CE170E08EE495E00E9463
:10509000853410924D0560913D0470913E048091DD
:1050A0003F04909140040E94DF1660317105810534
:1050B000910508F48DCF109268018ACF7F928F926C
:1050C0009F92AF92BF92CF92DF92EF92FF920F9397
:1050D0001F93CF93DF93CDB7DEB72F970FB6F8941A
:1050E000DEBF0FBECDBF8E010F5F1F4F8AE0D8011C
:1050F0001D928A95E9F78FE9C82E81E0D82EF12C10
:10510000E12CAA24A394B12C2AEA822E21E0922E2B
:10511000F60181916F018F3F09F443C0F894E82FA5
:10512000E295EF70F0E021A18F70A50102C0440F5D
:10513000551F8A95E2F7CA01922F982B91A392A14D
:105140008095892382A30E94C60B00C0E4EAF1E0A7
:10515000712C31E021912F3F09F47AC0A22FA29542
:10516000AF70B0E090968C9190E02F7002C0959552
:1051700087952A95E2F780FD6BC0832F782A330F3D
:105180008E169F0639F7F601319780818F3F11F017
:105190000E94C80B50EA5A95F1F7F801EE0DFF1D79
:1051A00070828FEFE81AF80A95E0E916F10409F029
:1051B000AFCF4AE050E0B8018CE793E00E94513451
:1051C0007C01892B41F08AE0F801ACE7B3E0019063
:1051D0000D928A95E1F710918703E114F104D1F162
:1051E00081E0809329030E94A91C90932803809357
:1051F000270380912703909128030E949A1C05970A
:1052000078F0ACE7B3E0E12FF0E0E557FC4F81E840
:1052100093E02D9121938A179B07D9F710922903C8
:1052200081E090E0EF28D1F02F960FB6F894DEBF22
:105230000FBECDBFDF91CF911F910F91FF90EF90E7
:10524000DF90CF90BF90AF909F908F907F90089508
:1052500080E094CF809129038111CBCF0E94FE146E
:10526000D82EE0918703DE011B967D01882309F487
:1052700087C085E01D928A95E9F70E2F10E005574B
:105280001C4F809177038A3008F046C044E95AE108
:10529000B701C8010E94BA14882309F44DC04DE734
:1052A00059E1B701C8010E94BA14882309F444C027
:1052B0004EE35AE1B701C8010E94BA148823E1F114
:1052C00043E458E1B701C8010E94BA148823A1F150
:1052D00046E359E1B701C8010E94BA14882361F17D
:1052E0004FEF58E1B701C8010E94BA14882321F199
:1052F000109277038091860390E045E050E0B7017B
:1053000085579C4F0E94513421E020933003892B14
:1053100051F5D12C8D2D88CF80912A0390912B03AC
:105320000E949A1C843F914008F0B0CF80913003D6
:10533000811112C080E078CF809177038F3F29F0F0
:105340008F5F809377038A30A8F20E94A91C909304
:105350002B0380932A03EACF85E0F70111928A9507
:10536000E9F710923003A0918603B0E0A557BC4F37
:1053700085E0FE013B9601900D928A95E1F7CACF38
:10538000F0E0E557FC4F0091860310E005571C4FF5
:10539000F89485E0A4E4B3E001900D928A95E1F7DA
:1053A00065E070E084E493E00E944A0A809343033E
:1053B0000E94C60BF89485E0E9E4F3E0D80101907F
:1053C0000D928A95E1F70E94C60BF894E091A30331
:1053D000F0E0E056FC4F80818B8780934F0361E0C3
:1053E00070E0C7010E944A0A80934E030E94C60BD8
:1053F000F894C0905003D0905103E0905203F09085
:10540000530380912C0390912D03A0912E03B09112
:105410002F03C816D906EA06FB06D1F0C0922C036A
:10542000D0922D03E0922E03F0922F030E94FE14DF
:1054300081110EC00E94D209C61AD70AE80AF90AD9
:10544000C0927803D0927903E0927A03F0927B03C2
:105450000E94C60BF8948091540390915503A0913B
:105460005603B09157038093A7039093A803A0938A
:10547000A903B093AA038091580390915903A09176
:105480005A03B0915B0380936B0390936C03A093DA
:105490006D03B0936E030E94C60BF89486E0ECE5B2
:1054A000F3E0AEE4B5E001900D928A95E1F710913A
:1054B0006203112349F080914104811105C00E94CB
:1054C0004A2580E00E94D60A109341040E94C60B30
:1054D00031CF1F921FB61F9211248F939F93AF93CA
:1054E000BF9380910205811113C0809103059091B3
:1054F0000405A0910505B09106054196A11DB11DB9
:105500008093030590930405A0930505B0930605C9
:10551000BF91AF919F918F911F901FBE1F901895C3
:10552000CDB7DEB72C970FB6F894DEBF0FBECDBF58
:1055300084B7877F84BF0FB6F894A89580916000E8
:10554000886180936000109260000FBE80E890E058
:105550000FB6F89480936100909361000FBE85B7F9
:10556000806885BF85B7806885BF84EC9BE0909399
:10557000B3028093B2020E9443080E940E098091F8
:10558000E20084608093E20078948091170588237C
:10559000A1F01091E9001F709091EC00892F8170AB
:1055A00090FD80E8182B1092E9008091E80083FDBF
:1055B0000E94DE101F701093E90082E084BD93E02A
:1055C00095BD9AEF97BD80936E001092780310926C
:1055D000790310927A0310927B030E94FE14809349
:1055E0004C010E94FE1481110E944F3280914C01A7
:1055F00080914C0195E0811190E09093870385E0C4
:10560000891B809386030FE911E084EAE82E81E08C
:10561000F82ED8018D918D018F3F11F00E94C80B9B
:10562000E016F106B1F704EA11E0BAEAEB2EB1E0B8
:10563000FB2EF80181918F018F3F11F00E94C80B62
:10564000E016F106B1F78AE0EBE8F3E0DF01282F7E
:105650001D922A95E9F7ECE7F3E0DF011D928A95A8
:10566000E9F790E080E00E947F34893E9E4F11F080
:105670000E94D11A82E090E00E94773480939503D3
:105680000E943518909389038093880383E090E00B
:105690000E947734682F70E090E080E00E94C9108B
:1056A000109221058FEF9FEF90933B0580933A0571
:1056B00090933D0580933C0590933F0580933E0574
:1056C0009093410580934005909343058093420554
:1056D0009093450580934405909347058093460534
:1056E00090934905809348051092100490932A04E2
:1056F0008093290490932C0480932B0490932E0480
:1057000080932D049093300480932F04909332045F
:10571000809331049093340480933304909336043F
:1057200080933504909338048093370490E080E0B0
:105730000E947F34893E9E4F21F00E94D11A0E9420
:105740001A1846E050E06CE170E08EE495E00E94AB
:10575000673410924D0580914E058C7F11F40E94A4
:105760001A180E94FE1483E08093CB0380E280939A
:1057700054050E94E7306DE070E08DE193E00E94F7
:10578000C013892BE9F58091CB0363E070E081FDC4
:10579000B8C18AE193E00E94C013892B89F56DE0BE
:1057A00070E08AE093E00E94C013892B49F50E94C3
:1057B000D209605A75418F4F9F4F6093F6047093E2
:1057C000F7048093F8049093F904E7E5F5E080E0AE
:1057D00092E0DF019C011D9221503040E1F7F093EF
:1057E0005E07E0935D078FEF9FEF909356058093E0
:1057F000550581E08093FB048093FA041092CC035A
:1058000080914C01811106C084EF80935A0185EF8D
:105810008093590180915A01E82FE295EF70F0E0F2
:1058200031A18F7041E050E0BA0102C0660F771FCE
:105830008A95E2F7CB01262F2095232321A392A15D
:10584000982B92A390915901E92FE295EF70F0E027
:1058500021A19F70DA0102C0AA0FBB1F9A95E2F73F
:10586000CD019A2F9095922391A392A1892B82A387
:10587000EFE8F1E03197F1F700C0000020915A0104
:10588000E22FE295EF70F0E080A190E02F7002C06F
:10589000959587952A95E2F7817090915901E92FA6
:1058A000E295EF70F0E020A130E09F7002C03595E6
:1058B00027959A95E2F792E020FF90E0892B80935C
:1058C000A40390914C0181E098279093A303891B36
:1058D00080938A030E94FE14811102C00E945232FA
:1058E0008DE491E09093FF048093FE04809117056E
:1058F00000E112E1853009F44FC10E945E28E82ED4
:1059000081110E94D209EBE8F3E0A6E9B3E0912C03
:10591000812CC82C71908D91871509F4CDC28725F3
:10592000F12C11E0982F912309F4C1C20E94FE14BA
:105930007122882399F0F982CA8281E0711001C036
:1059400080E08B830E94A91C8160782F9D838C83CB
:1059500049815A816B818D810E94BA24F401EA56F3
:10596000FC4F808118271083772089F086E0889D7E
:10597000F001899DF00D1124EE53FE4FEF0DF11D46
:105980008081712C8F3F19F0D82E77247394072DC6
:1059900010E080911004800F912F911D09976CF1F8
:1059A000E8E0AE2EB12CA01AB10AB8016F5E7B4FB1
:1059B000A50181E194E00E945E34B801675E7B4FEF
:1059C000A50189E194E00E945E34A501440F551FB2
:1059D000B801660F771F675D7B4F89E294E00E94F4
:1059E0005E34B8016F5D7B4FA50181E294E00E94B7
:1059F0005E3488E08719809310048091100490E051
:105A0000AD2DB0E09D01220F331F22503E4FAA0F53
:105A1000BB1FBD0161507E4F41E0480F971508F450
:105A2000C7C08093100480914E058C7F8C3009F0A4
:105A300002C18FEF8C0D21E02C0D9FEF9F0DA1E097
:105A4000AF0D9F1580F436E0389DF001399DF00DC3
:105A50001124EC52FC4FE90FF11D308140E1340F6D
:105A600008F43FEF30836F2D70E036E0389DA001E1
:105A7000399D500D11244C525C4FFA01E60FF71F6F
:105A8000308110E2310F08F43FEF3083A63009F483
:105A90009AC3FA01EA0FF11D308140E1340F08F496
:105AA0003FEF30832A3009F098C09F1570F426E04C
:105AB000829FF0011124EC52FC4FE90FF11D20816F
:105AC0003DE0230F08F42FEF208336E0839FC001D1
:105AD00011248C529C4FFC01E60FF71F208130E10E
