:100000000C941D080C9455080C9455080C94F2326D
:100010000C9455080C9455080C9455080C945508EC
:100020000C9455080C9455080C946F1C0C942B1CC4
:100030000C94AC2A0C9455080C9455080C94550853
:100040000C9455080C9455080C9455080C945508BC
:100050000C9455080C94481D0C9455080C945508A4
:100060000C9455080C9455080C9455080C9455089C
:100070000C9455080C9455080C9455080C9455088C
:100080000C9455080C9455080C9455080C9455087C
:100090000C9455080C9455080C9455080C9455086C
:1000A0000C9455080C9455080C94550820202020D9
:1000B0002000165C1E001F002000210022002B00E3
:1000C00014001A0008001500170039620400160019
:1000D000070009000A00E0001D001B0006001900CF
:1000E000050035002F644C0001512C00E3002D0069
:1000F000270026002500240023002E0013001200F4
:100100000C0018001C00340033000F000E000D001E
:100110000B003172380037003600100011004663C2
:1001200030742A0002512800650029003A003B0083
:100130003C003D003E002B0000000000000052008B
:100140000000E10001007600500051004F00E00087
:100150001D011B010601190105010100E2004C000F
:100160000100010000004500430042004100400042
:100170003F000000000054002E0224022502E5008A
:1001800034023814300230002702E4006500000019
:100190000000000000000100E6002A00010001004C
:1001A000B30044003A003B003C003D003E0001002B
:1001B00031023100350023022202E10034001E0228
:1001C0002F022F00260201000100000000000000A5
:1001D0002C08010001004C0001002F0226024500FE
:1001E00043004200410040003F00000000000000CA
:1001F0004E0052004B000000000000004F00510074
:100200005000E100000000000000000000000100BC
:1002100001002A00010030022702005C00000000FB
:10022000000000000000C35CC65CC85CCA5C000043
:100230000000C45CC75CC95CCB5C0000000000002F
:1002400000000000000000000000010001000100AB
:1002500001000100000014501550000000000000D3
:100260000000000000000000AB00AE00AC00000089
:1002700000000000AA00A800A90000000000000083
:10028000BB00AD00BC000100010001000100010045
:100290000000220029001E001F002000210017007E
:1002A0002B0014001A00080015000A00E1000400E9
:1002B0001600070009000500E0001D001B000600F5
:1002C00019003A003B00E100E0002C000000105053
:1002D000270026002500240023003300130012000D
:1002E0000C0018001C00340052000F000E000D001E
:1002F0000B004F0051003700360010001100500075
:100300003C00E500E4002800000029000000000097
:1003100000004A004D002B004C012A0152004B0006
:100320004E00E1001D01510051004F000000E000AF
:10033000E3001B01060119010000E20000004C006F
:1003400000002C0000001050000056005500540022
:100350005300000000005700610060005F00E500EE
:10036000000085005E005D005C00E4006500670041
:100370005B005A0059002302630062002A00580003
:10038000000000DA0281FFD9F1DB20A4A62EAF0025
:10039000A0C000A1C800AED580A81FD300408D1416
:1003A0002000209495962020B4B5B62020D4D5D630
:1003B0002000209798992020B7B8B92020D7D8D905
:1003C0002000209A9B9C2020BABBBC2020DADBDCDA
:1003D0002000209D9E9F2020BDBEBF2020DDDEDFAF
:1003E0002000A7A800AFB000C600CA00C800A5A69C
:1003F00000ADAE008788008F9000C500C900C7001F
:10040000CB008586008D8E00ABAC00CFD000C6003F
:10041000CA00C800A9AA00B1B2008B8C00CDCE00E2
:10042000C500C900C700CB00898A0091920000C0B6
:1004300020202020202020202020202020202020BC
:10044000202020202020202020202020C00000FF6D
:1004500000000000000000000080C0E0F0F8F8F0AC
:10046000E0C080000000000000000000FF0000FF6E
:100470000000000000000000000000001F3F3F1FC0
:10048000000000000000000000000000FF0000036A
:10049000040404040404040404040404040404041C
:1004A0000404040404040404040404040300000019
:1004B0000080201000080808080808080808080834
:1004C0000808080808080800102080000000000044
:1004D00000FF0000000000000000003030F8F800CD
:1004E00000000000000000000000FF00000000000D
:1004F00000FF00000000000000000000003F3F007F
:1005000000000000000000000000FF0000000000EC
:10051000000104080010101010101010101010101E
:10052000101010101010100008040100000000C08E
:1005300020202020202020202020202020202020BB
:10054000202020202020202020202020C00000FF6C
:1005500000000000000000000080C0E0F0F8F8F0AB
:10056000E0C080000000000000000000FF0000FF6D
:100570000000000000000000000000001F3F3F1FBF
:10058000000000000000000000000000FF00000369
:10059000040404040404040404040404040404041B
:1005A0000404040404040404040404040300000018
:1005B0000000C0E0F0F0F0F0F0F0F0F0F0F0F0F05B
:1005C000F0F0F0F0F0F0F0F0E0C00000000000000B
:1005D0000000FFFFFFFFFFFFFFFFFFCFCF0707FF79
:1005E000FFFFFFFFFFFFFFFFFFFF00000000000015
:1005F0000000FFFFFFFFFFFFFFFFFFFFFFC0C0FF87
:10060000FFFFFFFFFFFFFFFFFFFF000000000000F4
:10061000000003070F0F0F0F0F0F0F0F0F0F0F0F1C
:100620000F0F0F0F0F0F0F0F0703000000000080C8
:10063000C0E0E0E0E0E0E0E0E0E0E0E0E0E0E0E0DA
:10064000E0E0E0E0E0E0E0E0E0E0E0C0800000FFCB
:10065000FFFFFFFFFFFFFFFFFF7F3F1F0F07070F9A
:100660001F3F7FFFFFFFFFFFFFFFFFFFFF0000FFB8
:10067000FFFFFFFFFFFFFFFFFFFFFFFFFFE0E0FFC8
:10068000FFFFFFFFFFFFFFFFFFFFFFFFFF00000176
:1006900003070707070707070707070707070707EE
:1006A00007070707070707070707070301000000F9
:1006B0000080201000080808080808080808080832
:1006C0000808080808080800102080000000000042
:1006D00000FF0000000000000000003030F8F800CB
:1006E00000000000000000000000FF00000000000B
:1006F00000FF00000000000000000000003F3F007D
:1007000000000000000000000000FF0000000000EA
:10071000000104080010101010101010101010101C
:1007200010101010101010000804010000000080CC
:10073000C0E0E0E0E0E0E0E0E0E0E0E0E0E0E0E0D9
:10074000E0E0E0E0E0E0E0E0E0E0E0C0800000FFCA
:10075000FFFFFFFFFFFFFFFFFF7F3F1F0F07070F99
:100760001F3F7FFFFFFFFFFFFFFFFFFFFF0000FFB7
:10077000FFFFFFFFFFFFFFFFFFFFFFFFFFE0E0FFC7
:10078000FFFFFFFFFFFFFFFFFFFFFFFFFF00000175
:1007900003070707070707070707070707070707ED
:1007A00007070707070707070707070301000000F8
:1007B0000000C0E0F0F0F0F0F0F0F0F0F0F0F0F059
:1007C000F0F0F0F0F0F0F0F0E0C000000000000009
:1007D0000000FFFFFFFFFFFFFFFFFFCFCF0707FF77
:1007E000FFFFFFFFFFFFFFFFFFFF00000000000013
:1007F0000000FFFFFFFFFFFFFFFFFFFFFFC0C0FF85
:10080000FFFFFFFFFFFFFFFFFFFF000000000000F2
:10081000000003070F0F0F0F0F0F0F0F0F0F0F0F1A
:100820000F0F0F0F0F0F0F0F070300000000A0A105
:10083000A2A3A4C0C1C2C3C400FFFFFFFFFFFFFF0C
:10084000FFFFFFFFFFFFFFFF9F0DA5C7FFFF0F0F7C
:100850001BFBFFFFFFFFFFFFFFFFFFFFFF7F1F0FE0
:1008600007030301000003070F0F1F1E1E0A0F0FCF
:100870000F07013F7FFFFFFFFFFF3F0F0100E0F881
:10088000FCFEFEFFFFFFFFFFFFFFFFFEFEFCF8F098
:100890000000000000010FFFFFF70000001F7FFFB6
:1008A000FFFFFFFFFFFFFFFFFFFFFFFFFFFF7FBF18
:1008B0000F00000000000001FFFFFFFEFEFEFEFE35
:1008C000E4DCBD393181010180012039383830C084
:1008D000F8F0C0C0C0C0C0FCFF0707070707070744
:1008E00007070705050404040500020101040707C2
:1008F0000707070707070707074E554D20504144D4
:100900000047414D4552204D4F4445000001010133
:1009100001010101010102020202020202020203BC
:10092000030303030303030404040404040405058C
:10093000050505060606060607070707070808084F
:1009400008090909090A0A0A0B0B0B0C0C0C0D0DFE
:100950000D0E0E0E0F0F0F10101111111212131396
:100960001414151516161717181819191A1A1B1B0F
:100970001C1D1D1E1E1F202021222223242425266B
:1009800026272829292A2B2C2D2D2E2F30313232A3
:10099000333435363738393A3B3C3D3E3F404142AF
:1009A000434445464748494A4C4D4E4F5051535495
:1009B000555658595A5B5D5E5F6162646566686949
:1009C0006B6C6D6F7072737577787A7B7D7E8082C9
:1009D000838587888A8C8E8F91939596989A9C9E12
:1009E000A0A2A3A5A7A9ABADAFB1B3B5B7BABCBE22
:1009F000C0C2C4C6C9CBCDCFD1D4D6D8DBDDDFE2EF
:100A0000E4E7E9EBEEF0F3F5F8FAFDFF00AF00AE36
:100A100005010980A101850319012AB700150126E6
:100A2000B700950175108100C0050C0901A1018571
:100A30000419012AA002150126A002950175108152
:100A400000C005010906A101050719E029E7150005
:100A50002501950875018102950175088101050739
:100A6000190029FF150026FF00950675088100056D
:100A700008190129059505750191029501750391E4
:100A800001C009023B00020100A0FA0904000001B4
:100A90000301010009211101000122400007058125
:100AA00003080001090401000103000000092111ED
:100AB000010001223200070582032000011201001B
:100AC00002000000088379694B0100010200010E59
:100AD000034B0069006D0069006B006F000000149B
:100AE000034B0065007900630061007000730073C0
:100AF0000073000000040309040000000000003E31
:100B00005B4F5B3E003E6B4F6B3E001C3E7C3E1CD1
:100B100000183C7E3C18001C577D571C001C5E7F53
:100B20005E1C0000183C180000FFE7C3E7FF000050
:100B30001824180000FFE7DBE7FF0030483A060EF4
:100B400000262979292600407F05050700407F05FA
:100B5000253F005A3CE73C5A007F3E1C1C08000819
:100B60001C1C3E7F0014227F2214005F5F005F5F29
:100B70000006097F017F00006689956A0060606059
:100B800060600094A2FFA2940008047E0408001094
:100B9000207E20100008082A1C0800081C2A0808CB
:100BA000001E10101010000C1E0C1E0C0030383EE1
:100BB000383000060E3E0E06000000000000000067
:100BC000005F000000000700070000147F147F147E
:100BD00000242A7F2A120023130864620036495633
:100BE000205000000807030000001C224100000004
:100BF00041221C00002A1C7F1C2A0008083E08080D
:100C0000000080703000000808080808000000603C
:100C10006000002010080402003E5149453E0000DB
:100C2000427F4000007249494946002141494D3305
:100C3000001814127F10002745454539003C4A49E9
:100C4000493100412111090700364949493600461A
:100C50004949291E00000014000000004034000033
:100C6000000008142241001414141414000041223E
:100C70001408000201590906003E415D594E007CEE
:100C80001211127C007F49494936003E4141412200
:100C9000007F4141413E007F49494941007F0909A8
:100CA0000901003E41415173007F0808087F0000A0
:100CB000417F4100002040413F01007F0814224154
:100CC000007F40404040007F021C027F007F0408FC
:100CD000107F003E4141413E007F09090906003E68
:100CE0004151215E007F09192946002649494932B0
:100CF0000003017F0103003F4040403F001F2040B0
:100D0000201F003F4038403F006314081463000375
:100D100004780403006159494D4300007F4141417B
:100D200000020408102000004141417F000402013C
:100D3000020400404040404000001307080000202B
:100D400054547840007F28444438003844444428B0
:100D500000384444287F0038545454180000087E5A
:100D60000902001824241C78007F0804047800007D
:100D7000447D4000002040403D00007F102844009A
:100D80000000417F4000007C04780478007C080467
:100D90000478003844444438007C1824241800188F
:100DA0002424187C007C080404080048545454246B
:100DB0000004043F4424003C4040207C001C2040B0
:100DC000201C003C4030403C004428102844004C8B
:100DD0009090907C004464544C44000008364100DC
:100DE0000000007700000000413608000002010208
:100DF0000402003C2623263C001E2F373B3D1E00EC
:100E00001E212D2D2D1E001E2F373B3D1E001E21A5
:100E10003B37211E00000000F8042252E242424209
:100E2000E2522222224282020222220204F800001E
:100E3000F80402028242224282020202824222120A
:100E40002242820204F80000F8FCDEAE1EBEBEBEE6
:100E50001EAEDEDEDEBE7EFEFEDEDEFEFCF8000046
:100E6000F8FCFEFE7EBEDEBE7EFEFE000000000040
:100E700000808040402020101008081010202040E2
:100E80004080808080C0C0E0E0F0F0F8F8F0F0E052
:100E9000E0C0C080808080404020201010080810F2
:100EA00010202040408080808040C060A050B0581A
:100EB000A850B060A040C080801F1F0E1B11001FF3
:100EC0001F001F1F060C061F1F001F1F001F1F0EE5
:100ED0001B11001F1F111F001F20444A474242429E
:100EE000474A44404040404142444440201F0000A3
:100EF0001F2040414040404040414041414F484810
:100F0000484F4141201F00001F3F7B75787D7D7D4C
:100F100078757B7F7F7F7F7E7D7B7B7F3F1F00009F
:100F20001F3F7F7E7F7F7F7F7F7E7F0000000000EE
:100F30000088885D5D3E3E7C7CF8F87C7C3E3E5DB2
:100F40005D888888885555232347478F8F474723D7
:100F500023555588888888D5D5E2E2C4C48888C4DA
:100F6000C4E2E2D5D5888888885DD56BB66DD6ADEC
:100F7000DA6DD66BB65DD588887F6171797F007F29
:100F800019192D6F0043417F4161007F1F19197F9F
:100F9000004161717F010004F80000F804201F0087
:100FA000001F20FCF80000F8043F1F00001F200471
:100FB000F80000F8FC201F00001F3FFCF80000F8BC
:100FC000FC3F1F00001F3FFE7EBEDEEEDEBE7EFE4B
:100FD000FCF8007E7E70777777707E7E3F1F000082
:100FE0000000000000000000000000000000000001
:100FF00000000001010202040408080404020201C6
:1010000001000000000101020204040808040402B7
:10101000020101000000000101030307070F0F0791
:101020000703030101000000000101030205060D92
:101030000A05060302010100000011241FBECFEFC4
:10104000DAE0DEBFCDBF04B603FE18C080915A07B8
:1010500090915B07A0915C07B0915D078730904B42
:10106000A740B04B59F410925A0710925B071092A8
:101070005C0710925D07E0E0F8E3099512E0A0E05C
:10108000B1E0E2EAF9E602C005900D92AE3AB1078E
:10109000D9F727E0AEEAB2E001C01D92AA35B20747
:1010A000E1F70E94D32A0C94B9340C94000090917B
:1010B0004905937071F080934A0560934B05413563
:1010C00008F040E540934C0580914805816080938D
:1010D0004805089590914905937061F081110BC006
:1010E0009460909349051092640180914805816055
:1010F000809348050895863010F09461F2CF880FF0
:10110000880F982BEECFE8EDF0E080818E7F808312
:101110001092E2001092DA001092E100A0EEB0E02E
:101120008C9181608C9380818F77808319BCA7ED2F
:10113000B0E08C918E7F8C9380818F7E8083109223
:10114000050508952091E4003091E50095E6A90198
:101150002091EC00822F817020FF06C08091E80072
:1011600080FF06C080E008952091E80022FD1AC0AB
:1011700080911205882389F0853089F08091EB00F9
:1011800085FD0FC02091E4003091E5004217530720
:10119000F9F29150E1F684E0089582E0089583E049
:1011A000089581E00895EF92FF920F931F93CF93DC
:1011B0007C018B010E94A208C82F811117C0809169
:1011C000E80085FD0BC08091E8008E778093E800F1
:1011D0000E94A208882399F3C82F08C0F7018191C3
:1011E0007F018093F1000150110949F78C2FCF91B5
:1011F0001F910F91FF90EF9008958091140587FF44
:1012000013C08091E80082FF06C08091E8008B77D0
:101210008093E80004C0809112058111F2CF0895F7
:10122000809112058823D9F38091E80080FFF8CFE0
:101230008091E8008E77ECCF982F9093E900242FCF
:10124000762F50E0891731F07091EC002091ED007D
:101250005091F00021FD07C09F5F973071F7809398
:10126000E90081E008953091EB003E7F3093EB0080
:101270003091ED003D7F3093ED003091EB00316017
:101280003093EB007093EC002093ED005093F0004E
:101290002091EE0027FDE0CF80E00895CF92DF920D
:1012A000EF92FF920F931F93CF93DF93C8EDD0E09F
:1012B00088818F7E8883E7EDF0E080818160808384
:1012C00084E082BF81E08093050588818E7F8883DA
:1012D00002EE10E0F80110821092DA0081EEC82EC2
:1012E000D12CF601108288818F778883888180686D
:1012F000888388818F7D888319BC10921205109293
:101300001305109211051092100590EEE92EF12CA4
:10131000F70180818B7F808388818160888342E0B0
:1013200060E080E00E941C09F60180818E7F80834E
:10133000F801808181608083808188608083F701EB
:1013400080818E7F8083888180618883DF91CF91C7
:101350001F910F91FF90EF90DF90CF900895FC01C7
:1013600080911A0590911B0586179707A0F06115CB
:10137000710529F49091E8009E779093E80090E041
:101380006115710551F4911108C08091E80082FF48
:1013900034C080E00895BC01F2CF8091120588230B
:1013A000C1F18530C1F18091E80083FD30C08091AA
:1013B000E80082FDEACF8091E80080FFE1CF8091D4
:1013C000F3002091F200382F6115710519F02830D3
:1013D000310558F091E02830310509F090E0209176
:1013E000E8002E772093E800CBCF81918093F10025
:1013F000615071092F5F3F4FE7CF8091120588231D
:1014000041F0853041F08091E80083FFBECF81E05C
:10141000089582E0089583E00895089508958091E5
:10142000070508952FB7F8946091FE047091FF04AA
:1014300080910005909101052FBF08952091FB0434
:101440003091FC042817390771F09093FC048093C5
:10145000FB04E091F904F091FA04309721F0008444
:10146000F185E02D099408952091F7043091F80456
:101470002817390771F09093F8048093F704E091EE
:10148000F904F091FA04309721F00680F781E02DFD
:1014900009940895CF93DF9320915807309159070D
:1014A00022553540A901460F571F4130524020F0C8
:1014B00060E072E0621B730B409150055091510542
:1014C000FC01C901620F731FC1E0D0E086179707C6
:1014D00038F05093510540935005DF91CF91089516
:1014E0002491DC01AE5ABA4F3C91321781F02C9313
:1014F0009C01A5E036952795AA95E1F7DE0102C08B
:10150000AA0FBB1F2A95E2F79D014A2B532B019688
:101510003196DCCFFC01680F791F8FEF91E32191A9
:10152000822728E030E087FF09C0880F89272150F3
:101530003109C9F7E617F70791F70895880FF7CF34
:10154000FA01811101C0FB010994E9E4F5E024816D
:101550003AE0231B08F420E0248380914805816051
:10156000809348050895E9E4F5E024813AE0230FEB
:1015700008F42FEF2483809148058160809348050B
:101580000895E9E4F5E0438128E0421B08F440E0D7
:101590008181628190E00C945708E9E4F5E0438191
:1015A00028E0420F08F44FEF8181628190E00C94B3
:1015B0005708E9E4F5E0628128E0621B08F460E086
:1015C0008181438190E00C945708E9E4F5E0628161
:1015D00028E0620F08F46FEF8181438190E00C9462
:1015E0005708E9E4F5E08181438162818850990BD5
:1015F0000C945708E9E4F5E0818190E04381628131
:1016000008960C94570880914905869586958150D7
:1016100009F485E00C946A088091490586958695C1
:101620008F5F863008F081E00C946A0880935F0138
:1016300080914905837080935E010E94881583E044
:10164000809364010895EF92FF920F939701201BFE
:1016500031092F3F310519F010F02FEF30E0322F14
:101660003095482F430F08F44FEF842F620F0F91EE
:10167000FF90EF900895EF92FF920F931F930E0D3E
:101680001F2D111DF90137FF03C0F195E195F109F7
:1016900024E0EE0FFF1F2A95E1F7EF3FF10519F067
:1016A00014F0EFEFF0E09A0157FF03C03195219558
:1016B000310994E0220F331F9A95E1F72E173F0767
:1016C0000CF4F901E00FF11FEF3FF10519F010F0F4
:1016D000EFEFF0E0E095282F3E2F230F08F42FEFD7
:1016E000822F1F910F91FF90EF9008950C94711726
:1016F000FF920F931F93CF93DF93182F062FF42E93
:10170000D0E0C0E02F2D402F612FCE010E94760B3C
:101710002196CC33D105B1F7DF91CF911F910F9175
:10172000FF900895EF920F93CF93DF93D72FC82F99
:101730000E192115310529F480E857FD1CC080E001
:101740001AC0F90137FF04C0EE27FF27E21BF30B95
:10175000BA016E0F7F1F57FD17C04E1B5F0BCA01EA
:10176000E5E0880F991FEA95E1F70E942E3480E2A8
:10177000861B37FD8195602F681B7D2F8C2FDF9195
:10178000CF910F91EF900895CB0165E0880F991FDD
:101790006A95E1F7BF01641B750B0E942E3480E649
:1017A000E7CFAC018230910508F408959FEF413EE8
:1017B0008EE1580740F49A0195E0369527959A9561
:1017C000E1F798E0920F61E0E62FE90FFF27FF1F96
:1017D0009F0135952795822F229FF001239FF00DC1
:1017E000F00D11244E175F0738F49FEF920F9617F4
:1017F00058F78FEF860F08952F3FE9F361E0620FEE
:10180000F6CFAF92BF92CF92DF92FF920F931F93CA
:10181000CF93DF93362F472FE82FF0E0E45FF64FAA
:1018200071110FC0E4918E2F2E2F6E2F722FDF912A
:10183000CF911F910F91FF90DF90CF90BF90AF900D
:101840000895C72FD0E02491F22E022F10E056E029
:10185000659FC0011124EFEFF0E0BF010E940E343C
:10186000832F90E0880F991F35E5369FD001379F71
:10187000B00D11248A1B9B0B982F990F980F6F01A5
:10188000CC1ADD0AC09ED001C19EB00DD09EB00D15
:1018900011248B2F499FA0011124452F55276F013B
:1018A000C41AD50AC09EA001C19E500DD09E500DF5
:1018B00011245F01A91AB108AC9E6001AD9ED00C45
:1018C000BC9ED00C1124CD2CDD24EC19FD09E09F29
:1018D000E001E19FD00DF09FD00D1124ED2F62307B
:1018E0007105A1F050F46115710509F49ECF6130C6
:1018F000710581F0EB2F852F98CF6430710569F069
:1019000080F06630710509F490CFF4CFE22F2B2FD1
:101910008D2F8BCFE22F252F88CFEB2F822F2D2FCE
:1019200084CF2B2F8F2DE52F80CF80E008957894E2
:101930000895F894E82FE295EF70F0E031A1282F98
:101940002F7081E090E001C0880F2A95EAF7982F68
:101950009095932391A392A1892B82A30C94970C29
:101960009091840392FF06C0282F28712830F9F443
:10197000877F846093FF06C0282F28712831F1F4F7
:10198000877E84612091850320FF06C0382F38713F
:101990003830D9F4877F816021FF06C0282F287155
:1019A0002831D1F4877E816194FD877E0895282FA8
:1019B00024712430F9F68B7F8860DCCF282F2471C6
:1019C000243101F78B7E8861DDCF382F31713130C2
:1019D00019F78E7F8860E0CF282F2171213121F700
:1019E0008E7E8861E1CFCF93DF93EC018238910541
:1019F000A9F1D8F58133910509F496C048F58932EB
:101A0000910509F48AC08A9709F495C0C11522E5A9
:101A1000D20708F0B6C0C11531E5D30708F026C1DA
:101A2000C83ED10508F09CC0C03ED10560F5C83A5B
:101A3000D10508F087C0C53AD10508F0EFC0C13024
:101A4000D10509F12097F9F0C430D105E0F440C088
:101A50008533910509F45AC0C997C1F68091840372
:101A6000837089F0C0EED0E00EC0833E910599F1FD
:101A700070F4803E910501F1823E910539F6809126
:101A8000840382FD21C0CE01DF91CF910895863E6F
:101A9000910561F1873E910571F1843E910509F050
:101AA000B5CF8091850381FFEECF80918403C7EE8F
:101AB000D0E084FD0DC0E7CF8091840380FD07C195
:101AC0009091850390FFDFCFC3EED0E084FFDBCFA2
:101AD000D0E0C0E0D8CF8091840382FDFBC090911C
:101AE000850390FDBFCF84FFCECFF2CF80918403DA
:101AF00083FDDDCFC8CF8091840383FDEEC090913C
:101B0000850391FFF0CFC4EED0E0BDCF8091840378
:101B100085FFB9CFC9E2D0E0B6CF8091840385FFBD
:101B2000B2CFC5E3D0E0AFCF8091840386FFABCFC7
:101B3000CAE2D0E0A8CF8091840386FFA4CFC1E39E
:101B4000D0E0A1CFCF3BD10518F6C85AD0E0CC0FDA
:101B5000DD1FC559DE4F0990D881C02DD46493CFC5
:101B6000C11540E5D40708F064C0C11580E4D8076A
:101B700008F05CC0CE019A9581159F4108F483CF8F
:101B8000A7CFC11536E5D30718F5C11545E5D4072C
:101B900008F084C0C11584E5D80708F07AC09C2FEE
:101BA000969596959E0123703327C115D34508F469
:101BB00062C0C1E0D0E002C0CC0FDD1F2A95E2F781
:101BC00030E2939FC0011124C82BD92BDA685BCF78
:101BD000C1158AE5D80778F4C11599E5D90708F049
:101BE00068C0C11528E5D20708F472CFDC2FCC27D6
:101BF000C06FD06A48CFCE0190568115904208F050
:101C000067CF8D2F8F710E94B00C90E0982F88279E
:101C100088279F719C012C2BE90149C0C55AD0E04F
:101C2000C859DE4FC881D0E0D0642DCFDF70D06AB4
:101C30002ACFCE01E4E096958795EA95E1F7837087
:101C40002C2F26952695237040E2249F9001112485
:101C5000382B8C2F8370C1E0D0E002C0CC0FDD1F89
:101C60008A95E2F7C22BD32BDC680DCFDC2FCC2773
:101C7000C16FD06A08CFC1E0D0E002C0CC0FDD1F39
:101C80002A95E2F720E2929FC0011124C82BD92B9C
:101C9000EBCFDC2FCC27C46FD06AF5CE8C2F0E94FF
:101CA000B00CC82FD0E0DC2FCC27CC27DF71D0625E
:101CB000EACE8C2F8F700E94B00C34E0D695C79579
:101CC0003A95E1F7CF709C2FEC01D069DCCEC9E3E7
:101CD000D0E0D9CEC2EED0E0D6CEC6EED0E0D3CEA4
:101CE0000C94120A8091A20381111092A20308950C
:101CF00080959091A10398239093A1030895E2EB1E
:101D0000F2E09191891303C0DF0111971C9292E0D8
:101D1000E83BF907B1F70895A2EBB2E0EFEF90E0EE
:101D20002D91821751F0EF3F19F4211101C0E92FD5
:101D30009F5F9630A9F7EF3F09F408950E2E000C2F
:101D4000FF0BE055FD4F8283089580911803909119
:101D5000E702981301C008958F5F8770FACFAF92A2
:101D6000BF92CF92DF92EF92FF920F931F93CF9388
:101D7000DF93C090A303D090A403E090A503F0905C
:101D8000A6034091670350916803609169037091C5
:101D90006A03C42AD52AE62AF72ACFE1D0E0082F21
:101DA00010E026E0929F000D111D11249CE3A92E46
:101DB000BC2ED701C6010C2E04C0B695A7959795E9
:101DC00087950A94D2F780FD0FC0219788F7B12C30
:101DD0008B2DDF91CF911F910F91FF90EF90DF90AE
:101DE000CF90BF90AF900895AC9EF001AD9EF00DE6
:101DF0001124E00FF11FEE0FFF1FEE54FF4F8591EE
:101E000094910E94F30C019701F3E2CFCF93DF93FB
:101E1000EC010E94AF0EEC2FF0E096E0D99FE00DB0
:101E2000F11D11249CE3899FE00DF11D1124EE0F9B
:101E3000FF1FEE54FF4F85919491DF91CF910C9449
:101E4000F30CE92FEE0FE90FEE0F8E0F982F97701E
:101E500086958695869525E0829FF0011124E754AA
:101E6000FD4F50E040E080E0219130E0092E02C0BB
:101E7000369527950A94E2F721703327042E01C086
:101E8000220F0A94EAF7822B4F5F5F4F45305105CE
:101E900059F70895E92FEE0FE90FEE0F8E0F982FE7
:101EA000977041E001C0440F9A95EAF786958695B0
:101EB000869595E0899FF0011124E754FD4F30E0AD
:101EC00020E070E05191DF011197CB01022E02C09A
:101ED000969587950A94E2F78170819585278423EA
:101EE00085278C932F5F3F4F2530310559F7089593
:101EF000282F8091A3039091A403A091A503B091F2
:101F0000A6030097A105B10549F004C0B695A795B1
:101F1000979587952A95D2F78170089580E0089566
:101F2000FC01808191810E94060F92959F709630EE
:101F300091F058F4925F9F70923058F4803F19F0FE
:101F400030F4883E30F481E008959A5FF4CF843F06
:101F5000D1F380E00895883EB0F3813FD1F7F3CF0D
:101F6000CF92DF92EF92FF926C01EE24FF2420E0EB
:101F7000C114D104E104F10419F0C701B60120E154
:101F8000C72ED82EE92EFF24C114D104E104F10498
:101F900019F0285FC701B6016B017C0154E0F6948B
:101FA000E794D794C7945A95D1F7C114D104E104AA
:101FB000F10419F02C5FC701B6016B017C0142E00E
:101FC000F694E794D794C7944A95D1F7C114D104F5
:101FD000E104F10419F02E5FC701B60196958795CB
:101FE00077956795672B682B692B09F02F5F822FF8
:101FF000FF90EF90DF90CF900895AC01442751708F
:102000009C012227327094FF08C080E0452B09F024
:1020100080E1232B49F08062089581E0452B09F48B
:1020200080E0232B09F082600895CF93DF93C09165
:102030005807D09159078A30C1F420914F05CE013D
:1020400082559540622F70E00E940E34281B822F2B
:1020500066E00E942234C82FC15018F4DF91CF915E
:10206000089580E20E941510F7CF8D30E9F4C25533
:10207000D54020914F05622F70E0CE010E940E34B2
:10208000281B822F9E01280F311D2115324018F088
:1020900080E0D0E0C0E0C80FD11DCE5ADA4FD09317
:1020A0005907C0935807DACF96E0FE01A2E5B7E0E2
:1020B00001900D929A95E1F7803E08F458C086E0B1
:1020C000FE0111928A95E9F7C0915807D0915907FE
:1020D00046E050E0BE0182E597E00E9451349E0147
:1020E00022553540892B41F1C90145E096958795E8
:1020F0004A95E1F741E050E0BA0102C0660F771F50
:102100008A95E2F7CB016091500570915105862BBD
:10211000972BB9016B5F7F4FE5E076956795EA9560
:10212000E1F702C0440F551F6A95E2F7842B952B07
:1021300090935105809350052A5F3F4F40914F0582
:10214000642F70E0C9010E940E34481B463010F421
:10215000240F311D211572E0370710F030E020E028
:102160002E5A3A4F309359072093580777CFF6E00D
:102170008F9FB00111246750754F46E050E0CE01AB
:102180000E944834A1CFCF93DF93EC01FE018491EC
:10219000811103C0DF91CF9108950E9415102196FF
:1021A000F5CF8CEA90E00C94C3108091A10390913C
:1021B0002203892B8093B0029091A203992391F07E
:1021C000892B8093B00220E082EB92E0FC013191F8
:1021D000CF0131112F5FF2E0883B9F07B9F7211142
:1021E0000E94720E48E050E06AE173E080EB92E0FA
:1021F0000E945134892BA9F088E0E0EBF2E0AAE1DB
:10220000B3E001900D928A95E1F7E091F904F09125
:10221000FA04309731F00280F381E02D80EB92E0F8
:102220000994089590E080E00E94340A90E080E0F4
:102230000E941E0A109222030C94D5100F931F9334
:102240008B019C01067011272227332706301105C8
:102250002105310569F468606093A3037093A403BA
:102260008093A5039093A6031F910F910C941211D4
:10227000677FF2CF0F931F9341E050E060E070E082
:1022800004C0440F551F661F771F8A95D2F7CB01F4
:10229000BA0160957095809590950091A303109177
:1022A000A4032091A5033091A60360237123822308
:1022B00093231F910F910C941E11909119038095F7
:1022C000892380931903282F277091F4282F082E33
:1022D000000C330B9217130659F09091850392FD71
:1022E00007C08595859585950E943A11109219032E
:1022F00008950F931F9341E050E060E070E004C048
:10230000440F551F661F771F8A95D2F78091A3034C
:102310009091A403A091A503B091A6038A019B010B
:10232000082B192B2A2B3B2BC901B8011F910F91A8
:102330000C941E1160936703709368038093690384
:1023400090936A030C9412111092A103E2EBF2E055
:1023500086E0DF011D928A95E9F70C9412111F9314
:10236000CF93DF93CDB7DEB7AA970FB6F894DEBF51
:102370000FBECDBF84E195E02091F100FC012193D7
:10238000CF01F5E08C319F07B9F7809115058330B7
:1023900009F470C0B8F4813009F447C0823009F400
:1023A000B1C08091E80083FF7EC2809114059091B6
:1023B00015059A3008F077C2E92FF0E0E554FB4CA0
:1023C0000C9442348A3009F48CC08B3009F46FC00D
:1023D000893039F780911405813219F780911805F9
:1023E000909119050297E8F68091E800877F809325
:1023F000E8008091E80082FF38C09091F30080915E
:10240000F200029731F48091F100813011F08630B2
:1024100021F48091F100809307058091E8008B778B
:102420008093E8000E94FD08BCCF80911405813A9A
:1024300009F0B7CF8091E800877F8093E800809112
:10244000180590911905892B61F468E088E095E002
:1024500070E00E94AF098091E8008B778093E800DC
:10246000A0CF60E090E080E0F3CF80911205811171
:10247000C0CF97CF80911405813A09F092CF809117
:10248000180590911905892B09F08BCF8091E800F0
:10249000877F8093E8008091E80080FFFCCF8091E7
:1024A00060018093F1008091E8008E77B9CF809130
:1024B0001405813209F075CF8091180590911905A6
:1024C000892B09F06ECF8091E800877F8093E80028
:1024D0000E94FD0880911605809360010E94A4115E
:1024E00060CF80911405813209F05BCF8091E800C4
:1024F000877F8093E8000E94FD08809117058093F4
:1025000006054FCF80911405813A09F04ACF80919A
:10251000E800877F8093E8008091E80080FFFCCF8F
:1025200080910605BECF803899F0823809F0BBC192
:10253000809118058F70873008F0B5C18093E9004D
:102540008091EB0085FB882780F91092E90006C096
:102550008091100590911105911182609091E80091
:10256000977F9093E8008093F1001092F1008091A2
:10257000E8008E7794C1882309F482C1823009F083
:1025800092C180911605811185C1809118058F70C7
:102590002FEF280F263008F086C18093E9002091A4
:1025A000EB0020FF77C1933031F48091EB00806223
:1025B0008093EB006FC19091EB0090619093EB00E2
:1025C00021E030E001C0220F8A95EAF72093EA006B
:1025D0001092EA008091EB008860EACF811163C11C
:1025E000109116051F778091E3008078812B8093EE
:1025F000E3008091E800877F8093E8000E94FD0857
:102600008091E80080FFFCCF8091E3008068809398
:10261000E30082E0111183E08093120544C18058E9
:10262000823008F040C180911605909117058C3DCD
:1026300023E09207A1F583E08A838AE289834FB77A
:10264000F894DE01139620E03EE051E2E32FF0E043
:1026500050935700E49120FF03C0E295EF703F5F75
:10266000EF708E2F90E0EA30C0F0C7968D939D9367
:102670002F5F243159F74FBF8091E800877F809307
:10268000E8006AE270E0CE0101960E94AF098091F5
:10269000E8008B778093E80006C1C096E7CF4091B1
:1026A000180550911905292F33272330310509F4D6
:1026B00044C078F52130310509F46FC08BE390E018
:1026C000E2E8FAE02230310509F0EDC02091E8009F
:1026D000277F2093E80020911A0530911B0582176F
:1026E000930708F49C0140E02115310509F064C00E
:1026F000411162C08091E80082FDC9CF809112052E
:10270000882329F2853019F28091E80083FFF2CF07
:10271000BECF21323105A9F12232310509F0C3C003
:102720004115510509F443C04130510509F0BBC0C2
:1027300082E390E0E0E1FAE0C9CF9927813091058A
:10274000C1F0009759F0029709F0ADC0EFECFAE044
:10275000E4918E2F90E0EFECFAE007C0E5EFFAE0AD
:10276000E4918E2F90E0E5EFFAE0009709F49BC02A
:10277000ADCFEFEDFAE0E4918E2F90E0EFEDFAE0CF
:10278000F4CF4115510571F04130510509F08BC06E
:1027900089E090E0EDEAFAE099CF82E190E0EDEB9C
:1027A000FAE094CF89E090E0E4E9FAE08FCF80E4AA
:1027B00090E0E2E4FAE08ACF80911205882309F4E0
:1027C00066CF853009F463CF8091E80083FD5FCF49
:1027D0008091E80082FD8ECF8091E80080FF84CF59
:1027E0009091F3008091F2002115310519F08830A5
:1027F000910550F041E0089709F040E08091E80031
:102800008E778093E80070CF44914093F100319629
:10281000215031090196E8CF803809F044C08091F9
:10282000E800877F8093E800809113058093F10092
:102830009ECE811138C0109116051230A0F58091FE
:10284000E800877F8093E800109313050E94FD083D
:10285000112311F084E005C08091E30087FDFACFD9
:1028600081E08093120542E061EC81E00E941C0946
:1028700042E261EC82E00E941C098091120513C0C3
:1028800080911605813079F481E0933009F080E081
:10289000809311051092E9008091E800877F809372
:1028A000E8000E94FD088091E80083FF0AC0809143
:1028B000E800877F8093E8008091EB00806280933E
:1028C000EB00AA960FB6F894DEBF0FBECDBFDF9126
:1028D000CF911F910895882341F080959091220314
:1028E0008923809322030C94D5100895882339F00E
:1028F00090912203982B909322030C94D510089565
:10290000882321F00E94780E0C94D5100895882316
:1029100039F09091A103982B9093A1030C94D510BA
:102920000895CF92DF92EF92FF920F931F93CF9370
:10293000DF936C017B0164E670E088E70E94493117
:10294000EC0197FD12C010E000E0F601E00FF11F6E
:10295000849164E670E00E94C331EC01892B29F474
:102960000F5F1F4F0E151F0581F70E944632CE01E3
:10297000DF91CF911F910F91FF90EF90DF90CF905B
:1029800008958091F5049091F604911103C091E0AF
:1029900089270895882369F062E070E08EE09AE06C
:1029A0000E949114892B19F08091F50408951092DA
:1029B000F5048091F504EBCFCF93C091F50480919D
:1029C000F6048823D1F00E94120A605A75418F4F95
:1029D0009F4F6093F1047093F2048093F3049093FB
:1029E000F404C11108C062E070E08CE09AE00E943B
:1029F0009114892B29F0C091F5048C2FCF91089563
:102A000081E08093F504F7CF80930205709304056D
:102A10006093030580911205843001F582E0809374
:102A2000E9008FEF9091E800815095FD06C095ED8B
:102A30009A95F1F700008111F5CF8091E80085FFAC
:102A40000DC050E040E063E070E082E095E00E945D
:102A5000D3088091E8008E778093E8000895BC0148
:102A600084E00C940415BC0183E00C940415CF930E
:102A7000DF93EC0181E08093E9008FEF9091E80013
:102A8000815095FD06C095ED9A95F1F700008111F2
:102A9000F5CF8091E80085FF14C050E040E068E089
:102AA00070E0CE010E94D3088091E8008E77809379
:102AB000E80088E0FE01A8E0B5E001900D928A955B
:102AC000E1F7DF91CF91089581E08093E00080E20B
:102AD0008093D8001092C9008FE19EE40197F1F72E
:102AE00000C0000087E090EBDC0180935A079093D0
:102AF0005B07A0935C07B0935D0788E19CE00FB68D
:102B0000F894A895809360000FBE90936000FFCF6B
:102B1000539A3BB1377F2BB128604FB7F8948DE3C0
:102B200094E0FC015191CF0168E02BB9000000C096
:102B300057FF3BB9550F000000C000C000C03BB9B3
:102B400000C06A9591F7F4E0813F9F0751F74FBFAE
:102B50008FE594E00197F1F700C0000008959F927F
:102B6000AF92BF92CF92DF92EF92FF920F931F939B
:102B7000CF93DF937C015B016A018091730301E0D5
:102B800010E08A3010F40AE010E0C1E0D0E0F894E0
:102B9000B501C701F6010995982E0E94970C911076
:102BA00004C021960C171D076CF4892DDF91CF917D
:102BB0001F910F91FF90EF90DF90CF90BF90AF905B
:102BC0009F900895CC9F9001CD9F300D300D112422
:102BD00090E080E045E34A95F1F700000196821706
:102BE0009307C1F7D4CF80912D03811110C080913C
:102BF000D80080618093D8008AE18A95F1F700C0FF
:102C00008091D90080FF0AC081E080932D0381E08C
:102C100090912D03913009F080E0089582E0809337
:102C20002D030E94830810921205F1CF0E94F31524
:102C3000882351F0E091F904F091FA04309721F0E3
:102C40000190F081E02D099480E00895882309F433
:102C50004BC0823871F40E94161681FF45C089E38B
:102C60000E948C0E0E94D51089E30E947F0E0C9466
:102C7000D510833859F40E94161680FF35C083E5BD
:102C80000E948C0E0E94D51083E5EFCF843859F452
:102C90000E94161682FF28C087E40E948C0E0E94B4
:102CA000D51087E4E2CF9CEF980F913AF0F290E2D2
:102CB000980F983050F4877091E001C0990F8A9571
:102CC000EAF7892F0E94780ED2CF9BE5980F9330B8
:102CD00020F490E080E00C94340A885A873120F484
:102CE00090E080E00C941E0A0895CF93DF93EC01EE
:102CF0000E942616CE010E94FD0FDF91CF910C9409
:102D00006B140E94F31591E0892708952F923F924A
:102D10004F925F926F927F928F929F92AF92BF92EB
:102D2000CF92DF92EF92FF920F931F93CF93DF9397
:102D3000CDB7DEB728970FB6F894DEBF0FBECDBF74
:102D400089837C836B83209161018CE0289F802D97
:102D500011248D83182F145F1D3308F01CE30E948B
:102D60008116882319F01F3108F01EE10E94811698
:102D7000811105C03D813E3110F48EE18D8390912B
:102D80001C059A83FD81EF2FF0E0F887EF83CF01D8
:102D9000880F991F9C0122543E4F69013981832F6E
:102DA00090E0FC013196FE83ED83EF81E11758F04E
:102DB0000E948116882309F477C081E01E3108F44F
:102DC00077C080E075C0EF81F885EE58FD4F8081B7
:102DD00090916201892301F130904A0540904B05A2
:102DE0002D813E81245E3A4F39012980512CFA8190
:102DF0002F16D8F020914C05352D329F312D1124FE
:102E0000832F632D742D0E94010C462F282F672FCE
:102E10008F8198850E94760B8F819885019698877F
:102E20008F8392E0C90ED11CC0CFF30181913F0185
:102E3000F601A4ACA81ABB0885ACF3018781881AF7
:102E40009908AA9C9001AB9C300D300D1124889CF0
:102E5000C001899C900D900D1124820F931F0E9438
:102E6000D10B20914D0531E0230F08F42FEFF30132
:102E7000EE0FFF1FEC51F54045895689F12CE12CEE
:102E8000429FE12C529FE00CF11C1124082F940169
:102E9000A501632D742D852DEB81FC810995362EBE
:102EA000472E2394582EA3CF81E01C3308F089CFFE
:102EB00028960FB6F894DEBF0FBECDBFDF91CF913D
:102EC0001F910F91FF90EF90DF90CF90BF90AF9048
:102ED0009F908F907F906F905F904F903F902F903A
:102EE0000895FF920F931F93CF93DF93EC01F62E7B
:102EF000042F122F0E94811681110FC0CE31D105EF
:102F00007CF06E97FE01EE0FFF1FEC0FFD1FE35CE0
:102F1000FB4FF1820083128303C0CE31D10594F3BD
:102F2000DF91CF911F910F91FF9008950F931F9301
:102F30000E94F315882321F01F910F910C94120A1F
:102F40000E94120A00917403109175032091760378
:102F500030917703600F711F821F931F1F910F9194
:102F60000895CF92DF92EF92FF926B017C010E9455
:102F7000F3158823A1F02FB7F8946091FE047091A7
:102F8000FF0480910005909101052FBF6C197D0908
:102F90008E099F09FF90EF90DF90CF9008950E94D7
:102FA0009617F4CFCF93C82F882309F488C08238AE
:102FB000C1F40E94161681FD82C089E30E948C0E26
:102FC0000E94D5102FEF81EE94E021508040904078
:102FD000E1F700C0000089E30E947F0ECF910C94BE
:102FE000D5108338A1F40E94161680FD68C083E5D1
:102FF0000E948C0E0E94D5102FEF81EE94E021509C
:1030000080409040E1F700C0000083E5E5CF8438C0
:10301000A1F40E94161682FD52C087E40E948C0E15
:103020000E94D5102FEF81EE94E021508040904017
:10303000E1F700C0000087E4CFCF8CEF8C0F813A1E
:1030400068F4E2EBF2E08191C81799F122E0E83BE5
:10305000F207C9F78C2F0E948C0EC0CF80E28C0F34
:10306000883068F4C77021E030E001C0220FCA95B3
:10307000EAF78091A103822B8093A103AFCFEBE508
:10308000EC0FE33040F4F0E0E859FE4F808190E02F
:10309000CF910C94340AC85AC73188F4EC2FF0E071
:1030A000EE0FFF1FE559FE4F80819181CF910C9467
:1030B0001E0A8C2F0E947F0E0E94D510CBCFCF917D
:1030C00008951F93CF93DF93182FEB010E94D2171F
:1030D000209731F4812FDF91CF911F910C94261608
:1030E0008FE99FE00197F1F700C000002197F0CF32
:1030F000CF93C82F0E94FD0F0E9476148C2FCF9182
:103100000C94D217CF93C62F811135C06091A303C1
:103110007091A4038091A5039091A6030E94B00F23
:10312000823079F08330F9F0811108C070E060E0FE
:1031300081E5C11101C082E50E94611880E0CF9154
:103140000895CC2349F08BE291E00E9478188BE23D
:1031500091E00E947516F2CF8BE293E10E947818FD
:103160008BE293E1F6CFCC2319F00E94C10AE6CF9F
:103170000E94CD0AE3CF813009F76091A3037091DB
:10318000A4038091A5039091A6030E94B00F813003
:10319000C9F0882339F0833089F6CC23D1F00E941E
:1031A000FA0ACCCFCC2339F08FE491E00E94781852
:1031B0008FE491E0CECF80E591E00E94781880E521
:1031C00091E0C7CF70E060E089EAC111B5CF8AEA2B
:1031D000B3CF0E94F10AB2CFE9E4F5E085E0808345
:1031E0008091650190916601A0916701818392832E
:1031F000A3838FE784838FEF858346E050E06CE103
:1032000070E0CF010E948534109248050895CF9355
:1032100084E090E00E947734C82F82E290E00E9420
:103220007734982F8C2FCF9108951F93CF93DF93EE
:1032300000D000D0CDB7DEB740915F03509160035E
:1032400060916103709162032FB7F8948091FE043E
:103250009091FF04A0910005B09101052FBF841B40
:10326000950BA60BB70B11E084369105A105B105AE
:1032700070F10E9496176E5F7F4F8F4F9F4F69834B
:103280007A838B839C838091290190912A01815CB0
:103290009C4F4091280150E04530510510F044E02A
:1032A00050E0BE016F5F7F4F0E945E3485E090E08A
:1032B0000E949833182F882351F00E94120A6093BD
:1032C0005F03709360038093610390936203812F87
:1032D0000F900F900F900F90DF91CF911F91089555
:1032E0004F925F926F927F928F929F92AF92BF9216
:1032F000EF92FF920F931F93CF93DF937B01FB011C
:1033000040805180628073809FB7F8948090FE0463
:103310009090FF04A0900005B09001059FBF841815
:103320009508A608B708F4E68F169104A104B10425
:1033300018F4C1E0442329F1C82F880FDD0BFE01EA
:1033400083E0EE0FFF1F8A95E1F7E050FF4F818188
:103350009281815C9C4F408150E00417150708F46E
:10336000A801B9010E945E34CE010E949833C82F93
:10337000882339F00E94120AF701608371838283E7
:1033800093838C2FDF91CF911F910F91FF90EF903E
:10339000BF90AF909F908F907F906F905F904F9075
:1033A00008950F931F93CF93DF9300D000D000D0E8
:1033B0000F92CDB7DEB786E0E9E4F5E0DE011196C5
:1033C00001900D928A95E1F780913C048F8347E04C
:1033D00050E068E573E0CE0101960E94513441E06F
:1033E000892B09F440E007E010E09E012F5F3F4F7A
:1033F0006FE673E088E00E94701927960FB6F89484
:10340000DEBF0FBECDBFDF91CF911F910F91089509
:103410000F931F9341E000915003109151032091AD
:103420005203309153038091A3039091A403A09180
:10343000A503B091A603081719072A073B0709F44B
:1034400040E004E010E023EA33E06BE673E086E05E
:103450000E947019882301F141E0009154031091FA
:103460005503209156033091570380916703909143
:103470006803A0916903B0916A03081719072A0726
:103480003B0709F440E004E010E027E633E063E6A0
:1034900073E087E00E9470191F910F9108950F93B8
:1034A0001F93CF93DF93EC0145E050E065E473E0B8
:1034B0000E94513441E0892B09F440E005E010E01E
:1034C0009E0167E373E082E00E947019DF91CF9163
:1034D0001F910F9108954F925F927F928F929F92CA
:1034E000AF92BF92CF92DF92EF92FF920F931F9312
:1034F000CF93DF930F92CDB7DEB7C62E4A015901A5
:10350000482E880F5508C2010E949833782E8823D0
:1035100009F480C0C20133E0880F991F3A95E1F7A2
:10352000FC01E050FF4F438150E04115510511F07F
:1035300041E050E080509F4FFC0164817581615CE7
:103540007C4FCE0101960E945E34F401408151818E
:10355000628173812FB7F8948091FE049091FF04EB
:10356000A0910005B09101052FBF841B950BA60B00
:10357000B70B84369105A105B10540F4B701C80128
:103580000E948A0A9981891709F444C00C2C000C06
:10359000DD08C6010E949833782E811113C0712C6A
:1035A000872D0F90DF91CF911F910F91FF90EF909A
:1035B000DF90CF90BF90AF909F908F907F905F9063
:1035C0004F900895C60123E0880F991F2A95E1F7CF
:1035D000FC01E050FF4F438150E0E416F50608F48B
:1035E000A70180509F4FFC0164817581615C7C4F15
:1035F000C5010E945E34B701C8010E948A0A998100
:103600008913CDCF0E94120AF401608371838283F3
:103610009383C6CFA701B801C5010E945E34C0CF15
:10362000CF92DF92EF92FF920F931F93CF93DF938E
:103630000F92CDB7DEB7EE24E394F12C0BE413E048
:103640009E012F5F3F4F4BE353E064E083E00E9415
:103650006B1A082F882321F1C09086038C2D90E0EF
:103660009C0124563C4F79011981F9018081181B76
:10367000D12E80E00AC0DA94F70180818F5F8083C9
:1036800060E08C2D0E948218802F1D14A4F3912FCE
:1036900017FD90E0191B11110EC081110E94700ED0
:1036A000802F0F90DF91CF911F910F91FF90EF909E
:1036B000DF90CF9008951F5FF70180818150808354
:1036C00061E08C2D0E948218802FE5CFCF92DF928F
:1036D000EF92FF920F931F93CF93DF9300D000D010
:1036E0000F92CDB7DEB76B0185E0E82EF12C00E438
:1036F00013E09E012F5F3F4F43E353E061E080E022
:103700000E946B1A882349F095E0FE013196AEE2E3
:10371000B3E001900D929A95E1F795E0EEE2F3E0C7
:10372000D60101900D929A95E1F70F900F900F90AE
:103730000F900F90DF91CF911F910F91FF90EF901D
:10374000DF90CF90089569EE7EEF90E080E00E94D8
:10375000B33460E082E090E00E94953460E083E062
:1037600090E00E94953410926703109268031092C3
:10377000690310926A0360E084E090E00E9495344F
:1037800060E082E290E00E94953460E085E090E0A5
:103790000E94953460E086E090E00E9495346FEFDF
:1037A00087E090E00E94953440E050E0BA0188E064
:1037B00090E00E94A73460E08DE090E00E94953494
:1037C00040E050E0BA0188E190E00E94A73460E058
:1037D00087E190E00E94953440E050E0BA018CE12E
:1037E00090E00E94A73470E060E080E290E00E94E8
:1037F000B33440E050E0BA0188E190E00E94A73481
:1038000040E050E0BA018FE090E00E94A73440E031
:1038100050E0BA0183E190E00C94A734CF93C091BB
:103820008503C2FB992790F9981799F080FBC2F99C
:10383000C09385036091840384E090E00E949534F6
:103840006C2F82E290E00E94953482E0CF910C943C
:103850005D11CF9108951F920F920FB60F92112410
:103860002F933F934F935F936F937F938F939F9388
:10387000AF93BF93CF93DF93EF93FF93D091E90082
:10388000DF708091EC00C82FC17080FDC0E81092FD
:10389000E9008091F000877F8093F00078940E9487
:1038A000AF111092E9008091F00088608093F000E1
:1038B000CD2BCF70C093E900FF91EF91DF91CF91B5
:1038C000BF91AF919F918F917F916F915F914F9138
:1038D0003F912F910F900FBE0F901F9018951F9240
:1038E0000F920FB60F9211242F933F934F935F9334
:1038F0006F937F938F939F93AF93BF93EF93FF93B8
:103900008091E10082FF09C08091E20082FF05C042
:103910008091E1008B7F8093E1008091DA0080FF4D
:1039200024C08091D80080FF20C08091DA008E7F73
:103930008093DA008091D90080FF9DC080E189BD2D
:1039400082E189BD09B400FEFDCF81E080931205BC
:1039500080910505811109C00E9483080E944E09CB
:103960008091E20084608093E2008091E10080FF1A
:1039700017C08091E20080FF13C08091E2008E7F2B
:103980008093E2008091E20080618093E200809168
:10399000D80080628093D80019BC85E0809312051E
:1039A0008091E10084FF2BC08091E20084FF27C05A
:1039B00080E189BD82E189BD89B5982F917080FF32
:1039C000FBCF8091D8008F7D8093D8008091E1005B
:1039D0008F7E8093E1008091E2008F7E8093E200F1
:1039E0008091E20081608093E2008091130588233A
:1039F00009F447C084E080931205809112058091FC
:103A0000E10083FF27C08091E20083FF23C0809103
:103A1000E100877F8093E10082E08093120510929D
:103A200013058091E1008E7F8093E1008091E20098
:103A30008E7F8093E2008091E20080618093E200BB
:103A400042E060E080E00E941C098091F000886004
:103A50008093F000FF91EF91BF91AF919F918F9173
:103A60007F916F915F914F913F912F910F900FBE7A
:103A70000F901F90189519BC109212051092050511
:103A800074CF8091E30087FD93E090931205B5CF4A
:103A900078941F921FB61F9211248F939F93AF9318
:103AA000BF938091FE049091FF04A0910005B09116
:103AB00001050196A11DB11D8093FE049093FF04A2
:103AC000A0930005B0930105BF91AF919F918F9195
:103AD0001F901FBE1F9018959C014FB7F8948091BE
:103AE000FE049091FF04A0910005B09101054FBF25
:103AF000821B930B08952FB7F8948091FE04909148
:103B0000FF04A0910005B09101052FBF08950F9308
:103B10001F93CF93DF93C62FD42F022FFC018281F6
:103B20008823A1F0609347050E947B1D9093460572
:103B300080934505C77081E001C0880FCA95EAF7F8
:103B4000DF91CF911F910F910C94871480914705BD
:103B5000681337C080914505909146050E946C1D01
:103B6000883C910570F510E21D0FCD17B9F080E289
:103B70008C0F883040F4C77081E001C0880FCA956F
:103B8000EAF70E948014183048F481E09D2F977066
:103B900001C0880F9A95EAF70E94871470E060E0F0
:103BA000802F0E946118183098F4D77081E001C00E
:103BB000880FDA95EAF7DF91CF911F910F910C945E
:103BC0008014C77081E001C0880FCA95EAF7F3CF6F
:103BD000DF91CF911F910F9108954F925F926F9255
:103BE0007F928F929F92AF92BF92CF92DF92EF928D
:103BF000FF920F931F93CF93DF9300D000D00F92CB
:103C0000CDB7DEB77C01FC0183819481892B39F02B
:103C10001081D180812F8D218F3F09F090C40F90AA
:103C20000F900F900F900F90DF91CF911F910F91F8
:103C3000FF90EF90DF90CF90BF90AF909F908F90CC
:103C40007F906F905F904F9008950E94AF0E082F65
:103C5000682F89819A810E944A0FE12FF0E026E0C7
:103C6000D29EE00DF11D11243CE3039FE00DF11DF8
:103C70001124EE0FFF1FEE54FF4F05911491043FE6
:103C80008CE5180709F49CC0D0F5093DECE51E074A
:103C900009F492C00A3DFCE51F0709F49DC0083DE8
:103CA0002CE51207D1F526E241EE61EEC7010E9434
:103CB000871D80911903877009F4B1CFF7018281C4
:103CC000882309F4ACCF8091850382FDA8CF82E0E0
:103CD0000F900F900F900F900F90DF91CF911F9149
:103CE0000F91FF90EF90DF90CF90BF90AF909F909B
:103CF0008F907F906F905F904F900C945D11063F76
:103D00003CE5130709F464C008F45EC027E245EE01
:103D100066EE073F9CE5190749F2F7018281882387
:103D200009F41EC4109247050430FDE51F0708F092
:103D300056C00B3F2CE5120730F4C80182509C4559
:103D4000449708F056C00E9407199093850380930A
:103D5000840301319CE5190709F41FC108F09DC0D7
:103D60000930FCE51F0709F402C108F06AC00530FC
:103D70003CE5130709F4F3C008F050C003309CE59C
:103D8000190709F4E2C008F0E6C08091840381605D
:103D900002301C4509F4DCC0609184031091850356
:103DA00084E090E00E949534612F82E290E00E94CE
:103DB00095340E94A4117DCF27E245EE65EE76CFC3
:103DC00026E241EE60EE72CF27E245EE64EE6ECF62
:103DD00026E241EE62EE6ACF28E241E0EFCF023602
:103DE0003DE5130709F4AFCF063A8DE5180709F44E
:103DF000AACF06312CE5120709F0BFC38091A103B9
:103E00008A7A91E009F490E09093B8028111EFC0B2
:103E100089E20E948C0E0E94D5104BCF80918403C2
:103E2000806207302CE5120709F492C08091840368
:103E3000806108301C4508F48BC080918403806445
:103E400087C00D308CE5180709F49BC098F4809169
:103E500084038E7F0B30ECE51E0709F479C0809156
:103E600084038C600C301C4508F472C0809184037C
:103E70008D7F6EC0809184038F7E0F302CE51207FA
:103E800009F466C080918403877F00311C4508F4E3
:103E90005FC0809184038F7D5BC00E3F8CE5180767
:103EA00009F477C050F50531ECE51E0709F47FC031
:103EB00098F480918403837F03312CE5120709F481
:103EC00047C008F46EC00E94A41190918403892F0A
:103ED00097FB87F980583CC00C3F8CE5180709F424
:103EE00042C008F052C08091850381600B3F1C45A1
:103EF00009F052CF809385034FCF0230FDE51F07B5
:103F000009F461C090F4809185038C7F01153DE533
:103F1000130781F390F180918503982F909591700C
:103F20008E7F892B90FB81F9E5CF02369DE519073D
:103F300009F44FC0063AEDE51E0709F451C00330FD
:103F40001D4509F029CF60E03FC080918403826065
:103F50008093840321CF809184038460F9CF809182
:103F600084038860F5CF809185038260C3CF0E946F
:103F7000A411809184038068EBCF809185038360D6
:103F8000B9CF809184038B7FE3CF809185038E7FAF
:103F9000B1CF809185038D7FADCF809184038F7BDE
:103FA000D7CF0E94A411809184038F77D1CF8091C5
:103FB000840382FB992790F921E0922790FB82F9F4
:103FC00090FB83F9C5CF61E08EE090E00E949534CC
:103FD000E3CE90918403892F8F7E94FF8061B8CFC8
:103FE00090918403892F8E7F90FF8160B1CF85E30C
:103FF00010CF85E3BFC243E05BE06CE07BE00E9452
:10400000A00A57CE4CE05BE063E07BE0F8CF41EFE5
:104010005AE06AEF7AE0F3CF41EC5AE06DEC7AE0D7
:10402000EECF81E00E946A0844CE0E94A4113FEFC7
:1040300084E39CE0315080409040E1F700C00000F4
:104040000E94641581E0B9C280E0B7C2812F902F31
:104050000E94210FD82EC4C2212F2F70C22E107F94
:1040600019F0C29420EFC222DD20B9F0CC2069F013
:1040700080E2800F883010F0811009C08091A10388
:10408000C82AC092A1030E94D510802F4BC08091F6
:104090002203C82AC0922203F6CF802F0E94261640
:1040A000CC2009F441C0005E083010F0811004C03B
:1040B0008C2D0E94780E06C0C09480912203C822E5
:1040C000C09222030E94D5102FC0312F3F70C32E03
:1040D000107F103219F0C29490EFC922882089F025
:1040E00081E0881609F488C0DD2009F492C0992087
:1040F00009F488C0F701858180FFC7CF8F70858361
:1041000081C02091850322FF54C0DD2009F44AC0FC
:10411000CC2039F08091A103C82AC092A1030E944B
:10412000D51080E00E94D217EA2DE850FF0B34979B
:1041300010F40E941616BB20A9F08091190380FD8F
:1041400011C0F70112828595859585950E94791198
:10415000C7010E94ED1D8091190385958595859570
:104160000E943A1185E0F701DE01119601900D924F
:104170008A95E1F789819A810E94210F9A81E981CC
:10418000F0E026E0929FE00DF11D11243CE3839FB7
:10419000E00DF11D1124EE0FFF1FEE54FF4F85912E
:1041A00094913DCD80E00E942616CC2009F4BCCF2E
:1041B0007FCFDD20A1F09091A2038C2D892B91104F
:1041C00003C00E948714B0CFE1E09E12FACF22FD17
:1041D000ABCF981709F4A8CF8093A203A5CF911075
:1041E00006C00E94720E8C2D0E9480149DCFF1E0BB
:1041F0009F1609F499CFF5CFDD2031F025E0291580
:1042000008F492CF8C2DDDCF34E0391508F48CCF33
:10421000EACF992041F3F9E38F128AC12FEF37EEED
:1042200083E0215030408040E1F700C0000080C1B1
:10423000812F86958695837061F0813009F074CF67
:10424000C8019370D11002C090E080E00E941E0A65
:104250006BCFC8019370D11002C090E080E00E9443
:10426000340A62CF812F837009F066C0D1105CCF11
:10427000802F829586958770880F880F602F6F70CA
:10428000462E512C712C612C082E04C0440C551C58
:10429000661C771C0A94D2F740E050E0BA0104FF94
:1042A0000FC04FE050E060E070E004C0440F551FC5
:1042B000661F771F8A95D2F7409550956095709547
:1042C000812F869586958370823019F1D8F40091FC
:1042D0006703109168032091690330916A0381306C
:1042E00069F04429552966297729CB01BA01602351
:1042F0007123822393230E949A1116CF402A512AB8
:10430000622A732ACB01BA01642975298629972963
:10431000F2CF442955296629772900916703109126
:1043200068032091690330916A03CB01BA016027C9
:10433000712782279327DFCF8695DD2011F0812F0B
:104340008170882309F4F0CE802F8295869587703E
:10435000880F880F602F6F70462E512C712C612CA6
:10436000082E04C0440C551C661C771C0A94D2F716
:1043700040E050E0BA0104FF0FC04FE050E060E0C1
:1043800070E004C0440F551F661F771F8A95D2F74F
:104390004095509560957095812F86958695837090
:1043A000823019F1D8F40091A3031091A403209155
:1043B000A5033091A603813069F044295529662967
:1043C0007729CB01BA0160237123822393230E94B2
:1043D0001E11AACE402A512A622A732ACB01BA01A1
:1043E0006429752986299729F2CF442955296629F8
:1043F00077290091A3031091A4032091A503309184
:10440000A603CB01BA016027712782279327DFCF4C
:104410001F70DD2029F0812F0E947911802FD1CECD
:10442000802F0E948014812F0E943A117DCE802F10
:1044300092EF891609F43FC0981570F0E0EF8E16E0
:10444000D1F0F1EF8F1691F0DD2009F46CC09110DE
:104450001CCE812F8F7133C023EF821699F134EF78
:104460008312F2CF8091850382FF3FC0812F8F712D
:10447000DD20D1F224C0DD20C9F084E0891508F4E4
:1044800053CE1F7161E070E080E090E004C0660FE1
:10449000771F881F991F1A95D2F70091A3031091D7
:1044A000A4032091A5033091A603ADCF95E0991503
:1044B00008F43ACEE6CF812F8F71D110B5CF0E948C
:1044C000791132CE60E070E0CB01DD2009F47FCFBE
:1044D0001F7161E070E080E090E004C0660F771F1C
:1044E000881F991F1A95D2F772CFDD2089F01F71AE
:1044F000812F0E9479118091850382FD07C0E8E039
:104500001E9FC0011124836080931903812FD7CF90
:1045100081E00E945D11F1E0F91508F005CE82E01E
:104520000E945D1101CE992039F0893309F476CECD
:10453000802F0E942616F8CD812F8F7175CF85E0D0
:10454000DE01119601900D928A95E1F7F701228123
:1045500089819A81211179CB0E94210F082F7DCB6F
:104560000631FCE51F0709F082C08091B802811175
:1045700040CD89E20E947F0E4ECC0B352DE512070F
:1045800009F460CD58F401158CE5180709F44DCDF8
:104590000F3D1C45A1F40E94A31B8BCB0C35EDE510
:1045A0001E0709F451CD0D351D4549F48091850351
:1045B00082FB882780F991E089270E940E1CF70171
:1045C000828110810181882309F440CD812F902FB1
:1045D0000E94AF0ED82E682F812F902F0E944A0F75
:1045E000E12FF0E026E0029FE00DF11D11243CE3F5
:1045F000D39EE00DF11D1124EE0FFF1FEE54FF4F6F
:10460000859194910E94F30C8C01882EF701D28041
:10461000958092945FE09522809119038770C1F094
:10462000BD2CDD20B1F0812F807F803421F080E22D
:10463000800F883068F08091850382FD09C082E098
:104640000E945D11809119038770BB24B39481117E
:10465000B12CA12EA2943FE0A322FBE0FA1508F4AE
:1046600063CDEA2DF0E0EB53FB4C0C944234809187
:10467000A10382720A3C2CE5120709F4CDCCA8F5FF
:10468000063C9CE5190709F4C2CCC8F4043CFCE5DF
:104690001F0709F4B0CC08F0B5CC033C1C4509F069
:1046A0008ECF8091490591E089278093490510922A
:1046B000640180914805816080934805FACA49EDFC
:1046C0005AE065EE7AE0083C9CE5190709F497CCBE
:1046D0004AEF5AE061EF7AE0093C1C4508F48FCCC0
:1046E00045EE5AE069ED7AE08ACC0E3CFCE51F0706
:1046F00009F497CCB0F445EA5AE063EB7AE00C3C5D
:104700003CE5130709F47BCC4DEC5AE061EC7AE010
:104710000D3C1C4508F473CC43EB5AE065EA7AE0A3
:104720006ECC073DECE51E0708F4C3CA0E351D45E7
:1047300009F4BFCA44CF1F93CF93DF938091E60261
:10474000807FA9F48091E302882389F08091180387
:10475000D091E7026091E1027091E202A091E4023F
:10476000B091E502C62FC72316E0D81304C0DF912D
:10477000CF911F91089590E0109711F0CF3F19F459
:1047800001968770F2CF189F9001199F300D112468
:10479000F901E851FD4F41814713F2CF40814613A3
:1047A000EFCF42814111ECCF438154814A1B5B0B17
:1047B000483C510528F78091E6028F708061809314
:1047C000E602F901E351FD4F80818F7080618083A3
:1047D00081EE92E00E94ED1DDF91CF911F910C942C
:1047E000A50EAF92BF92CF92DF92EF92FF920F93FE
:1047F0001F93CF93DF93CDB7DEB761970FB6F894D1
:10480000DEBF0FBECDBF8C0185E0F801DE011D9635
:1048100001900D928A95E1F7F801E28081EEA82ED1
:1048200082E0B82E6091E4027091E5026115710595
:1048300009F432C19091E1024091E202892F842370
:104840008F3F09F429C120813181C380D480F09049
:10485000E302F601E61BF70BFF2009F4E8C08091A4
:10486000E602582F507FE83CF10508F0ABC051112B
:1048700077C0FE2C431321C092131FC0E1101DC04E
:104880008F7080618093E602C5010E94ED1D8091CA
:10489000E602F80185838F2D61960FB6F894DEBF8E
:1048A0000FBECDBFDF91CF911F910F91FF90EF9081
:1048B000DF90CF90BF90AF900895CD2829F0822F40
:1048C00083238F3F09F003C180E0F82FF170DF2EC2
:1048D00080FF3CC0809118034091E70256E08413AA
:1048E00015C02D873E878D859E850E94060F292F36
:1048F00022952F702230F0F0243018F59F70F1F0DF
:10490000F8019581907FD1F4D12C1EC090E0589F82
:10491000F001599FF00D1124E851FD4F61813613CC
:1049200006C06081261303C06281E6120FC00196A3
:104930008770D5CF9F7011F0882331F3805E883067
:1049400018F3C8010E94ED1DFD2CA5CFEE2009F43F
:10495000A2CF8091E60281608093E602F12C9BCF8A
:10496000431306C0921304C0F801EE2009F479C085
:10497000C8010E94900F882309F1EE20F9F0809180
:10498000E602803270F02091E1023091E202388735
:104990002F831986DB86CA868C87CE0107960E94F4
:1049A000ED1D86E0F801A1EEB2E001900D928A952E
:1049B000E1F70E949B23FF24F3946DCFC8010E946E
:1049C000ED1DF9CF51110AC081EE92E00E94ED1D5C
:1049D00086E0F50111928A95E9F7C0CF43130FC025
:1049E00092130DC0E1100BC0F8018583C8010E942D
:1049F000ED1D86E0F50111928A95E9F74CCFC801CB
:104A00000E94900F8823D1F2EE20C1F28091E6023D
:104A1000803238F22091E1023091E2023A83298318
:104A20001B82DD82CC828E83CE010196B8CFE83C1A
:104A3000F105F8F6FE2CEE2009F243131FC0921385
:104A40001DC08091E60280FD10C0982F907F69F014
:104A5000F8018583903F31F0982F907F905F8F70A1
:104A6000892B8583C8010E94ED1D86E0F801A1EE27
:104A7000B2E001900D928A95E1F70DCFC8010E9436
:104A8000900F81118ECF8091E60281608093E602C3
:104A9000C8010E94ED1DFFCEEE2009F48FCFC801A2
:104AA0000E94900FF82E882309F488CF86E0F80141
:104AB000A1EEB2E001900D928A95E1F78091E102BA
:104AC0009091E2020E94060F0E949B23E4CE81E0B7
:104AD0008E25FBCE1F93CF93DF93CDB7DEB76797BD
:104AE0000FB6F894DEBF0FBECDBF4B8B5C8B6D8BCA
:104AF0007E8B8F8B6111109222031A8A198A85E0AE
:104B0000FE017396DE011D9601900D928A95E1F7E4
:104B100086E0FE013D96DE01179601900D928A9582
:104B2000E1F7CE0107960E94F123882389F016E071
:104B3000809118039091E702891349C067960FB6D8
:104B4000F894DEBF0FBECDBFDF91CF911F910895C6
:104B500086E0FE013796DE01119601900D928A954E
:104B6000E1F78A859B85892B11F38F8198858923AD
:104B70008F3FE9F22091E70230E0C901019687708A
:104B80009927409118034817190671F40E94A4113F
:104B90001092E7021092180386E0E1EEF2E0DF01E6
:104BA0001D928A95E9F7C3CF96E0929FD001939F1B
:104BB000B00D1124A851BD4FFE01319601900D9208
:104BC0009A95E1F78093E7020E94A50EB0CF819FEE
:104BD000C001112488519D4F0E94F123882309F4BC
:104BE000ADCF8091180390E001968770992780934C
:104BF00018039ECF3F924F925F926F927F928F9257
:104C00009F92AF92BF92CF92DF92EF92FF920F935B
:104C10001F93CF93DF93782E80915F01871128C077
:104C200090914905937020915E0130E081E09217E8
:104C3000130609F480E081708093630180914E0532
:104C400090916201981739F08093620140E060E032
:104C500080E00E94780B22E0721609F48FC02715BD
:104C600048F07720E1F031E0731619F180E051C08F
:104C700081E0E1CF44E0741609F498C1741608F499
:104C8000F2C085E07812F2CF80911C0521E0382F28
:104C9000321B08F430E0832F63E27BE08AC180910D
:104CA00063018823B1F140E060E080E00E94780B6E
:104CB000DDCFC09161018CE0C89FC02D11241CE0A4
:104CC0001C0F1D3308F01CE30E948116882319F085
:104CD0001F3108F01EE10E948116811103C0CE3100
:104CE00008F4CEE160914A0570914B0580914C0526
:104CF0000E94010C062FF72EE82ED0E0C11770F1AC
:104D00000E948116882309F4A9C081E01E3108F0B1
:104D1000ADCF909161019F5F9093610181110CC0B3
:104D200082E08093640180916301811105C071105C
:104D300003C083E080936401DF91CF911F910F91B5
:104D4000FF90EF90DF90CF90BF90AF909F908F90AB
:104D50007F906F905F904F903F900895FE01EE58C6
:104D6000FD4F808190916201892331F02E2D402FDB
:104D70006F2DCE010E94760B2196C0CFC0916101AC
:104D80008CE0C89FC02D11241CE01C0F1D3308F0BF
:104D90001CE30E948116882319F01F3108F01EE1E0
:104DA0000E948116811103C0CE3108F4CEE120911A
:104DB00038043091390480914D058695F12CE12C11
:104DC000289FE12C389FE00CF11C1124FE2CD0E030
:104DD000CE01880F991FDC01A254BE4F6D01C1178F
:104DE00008F08ECFFE01EE58FD4F80819091620158
:104DF000892379F1F60184AD282F2057330B59010F
:104E000085ADA82FA052BB0B4D01AA9C9001AB9C75
:104E1000300D300D1124AA9FC001AB9F900D900D55
:104E20001124820F931F0E94D10B082F60914A0515
:104E300070914B0580914C05EF2C9401A5010E94C7
:104E4000920B0E94010C462F282F672FCE010E9443
:104E5000760BB2E0CB0ED11C2196C1CF81E01C3382
:104E600008F457CF03CFC09161018CE0C89FC02DDB
:104E700011243CE0532E5C0E152DFCE3F51508F4CF
:104E80001CE380916301882361F040E060E080E0F2
:104E90000E94780BEFECF3E08CE3DF011D928A9522
:104EA000E9F780916101811115C08091CD03909146
:104EB000CE030E946C1D21E08233910508F420E0AE
:104EC0002093CC03C29730F00E947B1D9093CE03B9
:104ED0008093CD03D0E0E12EF12C8AE0882E912C36
:104EE00096E0492E2AEA322ECE15DF0534F081E015
:104EF000BBE3B51508F00DCFB9CECE01B4010E94C9
:104F00002E346B015C014A9CC0014B9C900D112416
:104F1000FC01E153FC4FE60FF71F608082549E4F67
:104F2000FC01E60FF71F00810F3F51F110E0F8017F
:104F3000EE58FD4F808190916201892309F1362D51
:104F400025E5321B08F430E070914B05232D462DEA
:104F5000240F08F42FEF40914C05822F880F820F09
:104F60008E5F282F249F212D1124822F632D631BF8
:104F70000E94010C462F282F672FC8010E94760B34
:104F80008091CC03882381F0362D41E0341B08F456
:104F900030E04A9CC0014B9C900D112481539C4FE2
:104FA000C80ED91ED6013C9321969ECF6BE37BE0C1
:104FB00080E00E948616ADCE4F925F926F927F92F4
:104FC0008F929F92AF92BF92CF92DF92EF92FF9219
:104FD00060913404709135048091360490913704C7
:104FE0000E94B1176B017C010E9496174B015C0176
:104FF0008092340490923504A0923604B092370423
:10500000A0910B04EBE0F4E08A2F90E04FEF5FEF0C
:1050100060E070E04C195D096E097F09A91328C092
:1050200080930B0480913C04811135C09091490517
:10503000892F837019F0892F869586959091640148
:10504000913009F441C0992341F1923009F44AC0EA
:10505000933009F455C0FF90EF90DF90CF90BF9050
:10506000AF909F908F907F906F905F904F9008953A
:10507000218D328D2901712C612C44155505660551
:10508000770520F481509F5F3296C8CF2C0D3D1DCF
:10509000328F218FF8CF80E0D1CF109261018092C2
:1050A000380490923904A0923A04B0923B0489E209
:1050B000EBE0F4E0ACE1B5E001900D928A95E1F708
:1050C00081E080936401C7CFFF90EF90DF90CF9095
:1050D000BF90AF909F908F907F906F905F904F9018
:1050E0000C94FA25FF90EF90DF90CF90BF90AF9097
:1050F0009F908F907F906F905F904F900C94160BC5
:1051000080914805882351F046E050E06CE170E062
:1051100089E495E00E948534109248056091380436
:105120007091390480913A0490913B040E94B11728
:10513000603171058105910508F48DCF10926401ED
:105140008ACF7F928F929F92AF92BF92CF92DF923F
:10515000EF92FF920F931F93CF93DF93CDB7DEB7FC
:105160002F970FB6F894DEBF0FBECDBF8E010F5F35
:105170001F4F8AE0D8011D928A95E9F78BE9C82E66
:1051800081E0D82EF12CE12CAA24A394B12C26EA9C
:10519000822E21E0922EF60181916F018F3F09F45A
:1051A00043C0F894E82FE295EF70F0E021A18F70F2
:1051B000A50102C0440F551F8A95E2F7CA01922F3C
:1051C000982B91A392A18095892382A30E94970C8A
:1051D00000C0E0EAF1E0712C31E021912F3F09F4A9
:1051E0007AC0A22FA295AF70B0E090968C9190E01B
:1051F0002F7002C0959587952A95E2F780FD6BC0C8
:10520000832F782A330F8E169F0639F7F6013197D0
:1052100080818F3F11F00E94990C50EA5A95F1F766
:10522000F801EE0DFF1D70828FEFE81AF80A95E085
:10523000E916F10409F0AFCF4AE050E0B80188E781
:1052400093E00E9451347C01892B41F08AE0F801FF
:10525000A8E7B3E001900D928A95E1F710918303DE
:10526000E114F104D1F181E0809325030E947B1DBC
:10527000909324038093230380912303909124032C
:105280000E946C1D059778F0A8E7B3E0E12FF0E0ED
:10529000E957FC4F8DE793E02D9121938A179B07E7
:1052A000D9F71092250381E090E0EF28D1F02F96F6
:1052B0000FB6F894DEBF0FBECDBFDF91CF911F9127
:1052C0000F91FF90EF90DF90CF90BF90AF909F90A5
:1052D0008F907F90089580E094CF80912503811175
:1052E000CBCF0E94F315D82EE0918303DE011B96ED
:1052F0007D01882309F487C085E01D928A95E9F72E
:105300000E2F10E009571C4F809173038A3008F06C
:1053100046C046E65BE1B701C8010E94AF1588238D
:1053200009F44DC04FE45AE1B701C8010E94AF151E
:10533000882309F444C040E15BE1B701C8010E9441
:10534000AF158823E1F145E159E1B701C8010E9499
:10535000AF158823A1F148E05AE1B701C8010E94C6
:10536000AF15882361F141ED59E1B701C8010E94F1
:10537000AF15882321F1109273038091820390E08E
:1053800045E050E0B70189579C4F0E94513421E01D
:1053900020932C03892B51F5D12C8D2D88CF809112
:1053A0002603909127030E946C1D843F914008F0D2
:1053B000B0CF80912C03811112C080E078CF809112
:1053C00073038F3F29F08F5F809373038A30A8F2B5
:1053D0000E947B1D9093270380932603EACF85E0EC
:1053E000F70111928A95E9F710922C03A09182039C
:1053F000B0E0A957BC4F85E0FE013B9601900D92AD
:105400008A95E1F7CACFF0E0E957FC4F009182039B
:1054100010E009571C4FF89485E0A0E4B3E0019038
:105420000D928A95E1F765E070E080E493E00E94D8
:105430008A0A80933F030E94970CF89485E0E5E484
:10544000F3E0D80101900D928A95E1F70E94970C44
:10545000F894E0919F03F0E0E456FC4F80818B8745
:1054600080934B0361E070E0C7010E948A0A809339
:105470004A030E94970CF894C0904C03D0904D03BF
:10548000E0904E03F0904F03809128039091290300
:10549000A0912A03B0912B03C816D906EA06FB0691
:1054A000D1F0C0922803D0922903E0922A03F0920F
:1054B0002B030E94F31581110EC00E94120AC61A16
:1054C000D70AE80AF90AC0927403D0927503E092F1
:1054D0007603F09277030E94970CF8948091500322
:1054E00090915103A0915203B09153038093A30371
:1054F0009093A403A093A503B093A60380915403B3
:1055000090915503A0915603B09157038093670380
:1055100090936803A0936903B0936A030E94970C69
:10552000F89486E0E8E5F3E0A9E4B5E001900D9297
:105530008A95E1F710915E03112349F080913C04B4
:10554000811105C00E94FA2580E00E94160B10937D
:105550003C040E94970C31CF1F921FB61F9211245A
:105560008F939F93AF93BF938091FD04811113C0DC
:105570008091FE049091FF04A0910005B091010577
:105580004196A11DB11D8093FE049093FF04A0934A
:105590000005B0930105BF91AF919F918F911F902E
:1055A0001FBE1F901895CDB7DEB72C970FB6F89495
:1055B000DEBF0FBECDBF84B7877F84BF0FB6F89420
:1055C000A8958091600088618093600010926000CF
:1055D0000FBE80E890E00FB6F8948093610090933E
:1055E00061000FBE85B7806885BF85B7806885BFBD
:1055F00085E99CE09093AF028093AE020E948308FD
:105600000E944E098091E20084608093E2007894C9
:10561000809112058823A1F01091E9001F709091EC
:10562000EC00892F817090FD80E8182B1092E90022
:105630008091E80083FD0E94AF111F701093E90074
:1056400082E084BD93E095BD9AEF97BD80936E0094
:1056500010927403109275031092760310927703E0
:105660000E948116809348010E94F31581110E94C7
:10567000AB32809148018091480195E0811190E022
:105680009093830385E0891B809382030BE911E0EB
:1056900080EAE82E81E0F82ED8018D918D018F3FB0
:1056A00011F00E94990CE016F106B1F700EA11E042
:1056B000B6EAEB2EB1E0FB2EF80181918F018F3F0E
:1056C00011F00E94990CE016F106B1F78AE0E7E8C4
:1056D000F3E0DF01282F1D922A95E9F7E8E7F3E0D0
:1056E000DF011D928A95E9F790E080E00E947F3407
:1056F000893E9E4F11F00E94A31B82E090E00E9421
:105700007734809391030E940719909385038093C7
:1057100084030E94A128EFE3FCE93197F1F700C070
:1057200000000E94A1288091870380FF08C06FEFCE
:105730007FEF90E080E00E94B3340E94641583E024
:1057400090E00E947734682F70E090E080E00E9443
:105750009A1110921C058FEF9FEF9093360580935E
:105760003505909338058093370590933A058093DB
:10577000390590933C0580933B0590933E058093BB
:105780003D059093400580933F059093420580939B
:105790004105909344058093430510920B04909328
:1057A00025048093240490932704809326049093E7
:1057B00029048093280490932B0480932A049093C7
:1057C0002D0480932C0490932F0480932E049093A7
:1057D000310480933004909333048093320490E03A
:1057E00080E00E947F34893E9E4F21F00E94A31BDF
:1057F0000E94EC1846E050E06CE170E089E495E02E
:105800000E94673410924805809149058C7F11F4FD
:105810000E94EC180E94F31583E08093C70380E296
:1058200080934F050E9443316DE070E085E993E07D
:105830000E949114892BE9F58091C70363E070E021
:1058400081FDB8C182E993E00E949114892B89F50A
:105850006DE070E082E893E00E949114892B49F595
:105860000E94120A605A75418F4F9F4F6093F10456
:105870007093F2048093F3049093F404E2E5F5E06E
:1058800080E092E0DF019C011D9221503040E1F761
:10589000F0935907E09358078FEF9FEF90935105CE
:1058A0008093500581E08093F6048093F504109274
:1058B000C80380914801811106C084EF809356018E
:1058C00085EF8093550180915601E82FE295EF70A6
:1058D000F0E031A18F7041E050E0BA0102C0660FE4
:1058E000771F8A95E2F7CB01262F2095232321A34A
:1058F00092A1982B92A390915501E92FE295EF7018
:10590000F0E021A19F70DA0102C0AA0FBB1F9A9597
:10591000E2F7CD019A2F9095922391A392A1892B22
:1059200082A3EFE8F1E03197F1F700C00000209189
:105930005601E22FE295EF70F0E080A190E02F7029
:1059400002C0959587952A95E2F78170909155014F
:10595000E92FE295EF70F0E020A130E09F7002C0E7
:10596000359527959A95E2F792E020FF90E0892BF4
:105970008093A0039091480181E0982790939F0322
:10598000891B809386030E94F315811102C00E9437
:10599000AE3289E491E09093FA048093F904809107
:1059A000120500E112E1853009F44FC10E94A128DF
:1059B000E82E81110E94120AE7E8F3E0A2E9B3E0C1
:1059C000912C812CC82C71908D91871509F454C2AB
:1059D0008725F12C11E0982F912309F448C20E94E9
:1059E000F3157122882399F0F982CA8281E071103F
:1059F00001C080E08B830E947B1D8160782F9D8396
:105A00008C8349815A816B818D810E946A25F401C2
:105A1000EE56FC4F808118271083772089F086E0AE
:105A2000889DF001899DF00D1124E254FE4FEF0D89
:105A3000F11D8081712C8F3F19F0D82E772473943B
:105A4000072D10E080910B04800F912F911D099775
:105A50006CF1E8E0AE2EB12CA01AB10AB801645F77
:105A60007B4FA5018CE094E00E945E34B8016C5E2F
:105A70007B4FA50184E194E00E945E34A501440FB0
:105A8000551FB801660F771F6C5D7B4F84E294E071
:105A90000E945E34B801645E7B4FA5018CE194E006
:105AA0000E945E3488E0871980930B0480910B0478
:105AB00090E0AD2DB0E09D01220F331F26503E4FE8
:105AC000AA0FBB1FBD0165507E4F41E0480F9715DF
:105AD00008F4C7C080930B04809149058C7F8C30FB
